:100000000C9468000C9490000C9490000C94900058
:100010000C9490000C9490000C9490000C94900020
:100020000C9490000C9490000C9490000C94900010
:100030000C9490000C9490000C9490000C94900000
:100040000C945A0B0C9490000C94280B0C94020BFB
:100050000C9490000C9490000C9490000C949000E0
:100060000C94E3090C9490006364696E6F7073756F
:1000700078585B00000000002300260029000000E3
:100080000008000201000003040700000000000057
:10009000000000000000250028002B0000000000E8
:1000A000240027002A0004040404040404040202B7
:1000B00002020202030303030303010204081020E7
:1000C0004080010204081020010204081020A40B43
:1000D00011241FBECFEFD8E0DEBFCDBF24E0ACE3DC
:1000E000B3E001C01D92A03BB207E1F713E0A0E02E
:1000F000B1E0EAE0FCE202C005900D92AC33B1073A
:10010000D9F710E0C8E6D0E004C02197FE010E94B4
:10011000FD15C736D107C9F70E94DD0B0C94E70D1A
:100120000C94000085ED8093BC008091BC0084FDA0
:10013000FCCF1092DD0308952091B703260F3327DB
:10014000331F21323105ECF42091DD03FC0190E0F6
:1001500080E0243069F082E00895A091B7032191F6
:10016000AC014B565C4FA40FB52FB11D2C930196DB
:10017000861798F38091B703680F6093B70380E008
:10018000089581E008950895CF93DF93AC01E09145
:100190009103F09192033097F1F090919003809148
:1001A0008F039817C0F090E0292F30E0261737070B
:1001B00054F4D901A159BC4F240F351FE9012881FE
:1001C0002C939F5FF1CF1092900360938F03CB012C
:1001D000DF91CF910994DF91CF9108950895E09137
:1001E000900380918F03E81730F4F0E0E159FC4F61
:1001F000808190E008958FEF9FEF08959091900394
:1002000080918F032FEF3FEF981748F4E92FF0E02C
:10021000E159FC4F208130E09F5F90939003C9012A
:10022000089580918F0390919003891B990B0895F5
:10023000CF92DF92EF92FF920F931F93CF93DF93B2
:100240007C01CB018A0120916E03222389F0EB010E
:100250006B01C40ED51ECC15DD0569F06991D7017F
:10026000ED91FC910190F081E02DC7010995F3CF4C
:10027000642F0E949C00C801DF91CF911F910F91C4
:10028000FF90EF90DF90CF900895CF93DF931F9270
:10029000CDB7DEB7698320916E032223F9F0209158
:1002A0009303203258F021E030E0FC0133832283B5
:1002B00090E080E00F90DF91CF91089580919403BA
:1002C000E82FF0E0E25BFC4F998190838F5F809391
:1002D00094038093930381E090E0ECCF61E0CE0142
:1002E00001960E949C00F7CFFC01538D448D252F71
:1002F00030E0842F90E0821B930B541710F0CF96C0
:10030000089501970895FC01918D828D981761F0F1
:10031000A28DAE0FBF2FB11D5D968C91928D9F5F08
:100320009F73928F90E008958FEF9FEF0895FC01E7
:10033000918D828D981731F0828DE80FF11D858D9A
:1003400090E008958FEF9FEF0895FC01918D228D2D
:10035000892F90E0805C9F4F821B91098F739927B2
:100360000895FC01A48DA80FB92FB11DA35ABF4F4A
:100370002C91848D90E001968F739927848FA689A4
:10038000B7892C93A089B1898C9180648C93938DCB
:10039000848D981306C00288F389E02D80818F7DBB
:1003A00080830895EF92FF920F931F93CF93DF9373
:1003B000EC01F62E81E0888F9B8D8C8D981316C0F2
:1003C000E889F989808185FF11C0EE89FF89608302
:1003D000E889F98980818064808381E090E0DF9101
:1003E000CF911F910F91FF90EF9008950B8D10E02A
:1003F0000F5F1F4F0F731127E02E8C8D8E110CC0D5
:100400000FB607FCFACFE889F989808185FFF5CF1F
:10041000CE010E94B101F1CFEB8DEC0FFD2FF11D4C
:10042000E35AFF4FF0820B8FEA89FB89808180625B
:10043000D3CFCF93DF93EC01888D8823B9F0AA89BD
:10044000BB89E889F9898C9185FD03C0808186FD8F
:100450000DC00FB607FCF7CF8C9185FFF2CF8081DE
:1004600085FFEDCFCE010E94B101E9CFDF91CF91A1
:1004700008958FE094E00E94A50121E0892B09F402
:1004800020E0822F089580E090E0892B29F00E94DF
:10049000390281110C9400000895CF93DF93EC0191
:1004A0002FB7F89480914A0390914B03A0914C038D
:1004B000B0914D032FBF88879987AA87BB87E881B2
:1004C000F9810284F385E02DCE01099597FF1EC0C6
:1004D0002FB7F89480914A0390914B03A0914C035D
:1004E000B0914D032FBF488559856A857B85841B54
:1004F000950BA60BB70B4C815D816E817F818417B4
:100500009507A607B707D8F28FEF9FEFDF91CF913E
:100510000895AF92BF92CF92DF92EF92FF920F9326
:100520001F93CF93DF936C017B018B01040F151F89
:10053000EB015E01AE18BF08C017D10759F06991F1
:10054000D601ED91FC910190F081E02DC601099555
:10055000892B79F7C501DF91CF911F910F91FF9002
:10056000EF90DF90CF90BF90AF90089590E080E043
:10057000089508950895833081F028F4813099F02A
:100580008230A9F008958730A9F08830C9F084300E
:10059000B1F4809180008F7D03C0809180008F77BF
:1005A00080938000089584B58F7784BD089584B5C5
:1005B0008F7DFBCF8091B0008F778093B00008953E
:1005C0008091B0008F7DF9CF1F93CF93DF93162FCB
:1005D000282F30E0F901E258FF4F8491F901E654E9
:1005E000FF4FD491F901EA55FF4FC491CC23A1F0FC
:1005F00081110E94BB02EC2FF0E0EE0FFF1FEE56C0
:10060000FF4FA591B4918FB7F894EC91111108C0E8
:10061000D095DE23DC938FBFDF91CF911F9108959A
:10062000DE2BF8CF0F931F93CF93DF938C01EB0159
:10063000FC01808191810097E1F0688179816115E9
:100640007105A9F0428153812C813D8142175307E6
:1006500070F00E944D108C819D81F80195838483F8
:100660001D821C82DF91CF911F910F9108950E94EE
:10067000FE0E88819981F801918380838A819B8114
:10068000938382838C819D819583848319821882D0
:100690001B821A82E5CFCF93DF93EC018881998189
:1006A000009711F00E94FE0E198218821D821C8292
:1006B0001B821A82DF91CF910895FC018081918184
:1006C0000C94FE0E0F931F93CF93DF93EC018B01DD
:1006D00088819981009759F02A813B812617370735
:1006E00030F081E0DF91CF911F910F910895B80113
:1006F0006F5F7F4F0E94870F009759F0998388831F
:100700001B830A832C813D81232B59F7FC01108226
:10071000E8CF80E0E7CFEF92FF920F931F93CF9344
:10072000DF93EC017B01672B41F480E0DF91CF91F7
:100730001F910F91FF90EF90089541155105A1F081
:100740000C811D81040F151FB8010E9462038823CC
:1007500061F3288139818C819D81B701820F931FBC
:100760000E944D101D830C8381E0E0CFCF93DF9377
:10077000EC01FB0144815581608171810E948B03F2
:10078000811103C0CE010E944B03CE01DF91CF91B6
:100790000895EF92FF920F931F93CF93DF93EC0195
:1007A0007B018A01BA010E94620381110BC0CE0154
:1007B0000E944B03CE01DF91CF911F910F91FF90CB
:1007C000EF9008951D830C83B701888199810E9461
:1007D0004D10F0CFCF93DF93EC01FB018617970705
:1007E00049F0608171816115710541F04481558145
:1007F0000E94C903CE01DF91CF9108950E944B035F
:10080000F9CFFC01118210821382128215821482A8
:100810000C94EA03EF92FF920F931F93CF93DF9311
:1008200000D000D000D0CDB7DEB77C018B01BC0179
:10083000C80102960E94EA03B701CE0101960E9408
:100840000104C80101969F938F931F930F9380EC2F
:1008500091E09F938F938A818F9389818F930E94D8
:1008600077108C01CE0101960E945D0381E00FB6E6
:10087000F894DEBF0FBECDBF023011050CF480E04E
:1008800026960FB6F894DEBF0FBECDBFDF91CF9195
:100890001F910F91FF90EF900895FC01118210823B
:1008A00013821282158214826115710551F0FB01C9
:1008B00001900020E9F73197AF01461B570B0C94CC
:1008C000C9030895CF92DF92EF92FF920F931F9387
:1008D000CF93DF9300D0CDB7DEB78C016B01E42E50
:1008E0006DEC71E00E944D04C6010E944D020E2C79
:1008F000000CFF0897FD11C0E816F90671F0898316
:100900001A8241E050E0BE016F5F7F4FC8010E9434
:100910008B03C6010E944D02EDCFC8010F900F90CE
:10092000DF91CF911F910F91FF90EF90DF90CF90CB
:1009300008958F929F92AF92BF92CF92DF92EF92E3
:10094000FF920F931F93CF93DF93CDB7DEB76297DC
:100950000FB6F894DEBF0FBECDBF8C01809143036C
:100960009091440320914203FC01E20FF11DD080DD
:1009700030914103231334C0D801EC9120914003FE
:10098000E2132AC016964D915C91179712966D91BD
:100990007C918FE094E00E9489028C0142E050E05B
:1009A0006BEC71E08FE094E00E948902080F191F40
:1009B000C80162960FB6F894DEBF0FBECDBFDF91BF
:1009C000CF911F910F91FF90EF90DF90CF90BF904C
:1009D000AF909F908F900895E80FF92FF11DD08070
:1009E0006CEC71E0CE0107960E944D04B8016E5F79
:1009F0007F4FCE0101960E940104BE01695F7F4FC7
:100A0000CE0101960E94B603BC01CE010D960E9454
:100A10000104CE0101960E945D03CE0107960E945B
:100A20005D03F12CE12C10E000E0CC24C39482E0C3
:100A3000B82EAA24AA9495EE992E25EC822E4989E7
:100A40005A89E416F50608F06BC0C0926E03D09286
:100A50003F0310929403109293034E195F094031A3
:100A6000510510F040E150E06D857E856E0D7F1DD3
:100A700083E094E00E941801080F191F209193034E
:100A80002132E8F58091DD038111FCCF80913F0395
:100A9000B092DD03C092DF03A092DC031092010448
:100AA00020930004AEE4B3E0E0EEF3E090E029131D
:100AB00030C01092020490910204880F892B809319
:100AC00002048091DE03813041F51092DE038091B3
:100AD00002048093BB008091BC0083FDF8CF80921C
:100AE000BC008091DD038230E1F38091DC038F3F15
:100AF00031F08091DC03803211F08091DC031092A0
:100B000094031092930310926E03B0E1EB0EF11C6C
:100B100096CF3D9131939F5FCACF9092BC00E1CFB9
:100B2000CE010D960E945D0343CF0F931F93CF9389
:100B3000DF93CDB7DEB76F970FB6F894DEBF0FBE69
:100B4000CDBFBC01CE0145960E9401040091410336
:100B5000109140036DEC71E0CE0103960E944D04AC
:100B600085E0E7EDF1E0DE015B9601900D928A955C
:100B7000E1F71F920F931F921F938EEC91E09F93CA
:100B80008F938E01055E1F4F1F930F930E94541089
:100B9000809141038A83809140038983B801CE010B
:100BA0000F960E944D04BE01615F7F4FCE010996F2
:100BB0000E940104BE016B5E7F4FCE0109960E9428
:100BC000B603BC01CE0103960E94EA03CE0109964A
:100BD0000E945D03CE010F960E945D03CE014596F3
:100BE0000E945D03CE0101960E9499048C01CE0102
:100BF00003960E945D030FB6F894DEBF0FBECDBF13
:100C0000C8016F960FB6F894DEBF0FBECDBFDF915F
:100C1000CF911F910F910895CF92DF92EF92FF92A3
:100C20000F931F93CF93DF93CDB7DEB7A1970FB686
:100C3000F894DEBF0FBECDBF6C018091D9019091B9
:100C4000DA01A091DB018F8F98A3A9A31F9281E9FC
:100C50008F9382EDE82E81E0F82EFF92EF928E01C5
:100C6000015E1F4F1F930F930E945410B801CE01D5
:100C700049960E944D041F921F92FF92EF921F937C
:100C80000F930E945410B601CE0107960E944D04A6
:100C9000B801CE010D960E944D04BE01675E7F4FE4
:100CA000CE0143960E940104BE01635F7F4FCE01D7
:100CB00043960E94B603BE01695F7F4F0E94B60350
:100CC000BC01CE0101960E940104CE0101960E9452
:100CD00095058C01CE0101960E945D03CE014396DD
:100CE0000E945D03CE010D960E945D03CE01079622
:100CF0000E945D03CE0149960E945D030FB6F894F1
:100D0000DEBF0FBECDBFC801A1960FB6F894DEBFFF
:100D10000FBECDBFDF91CF911F910F91FF90EF904C
:100D2000DF90CF9008958F929F92AF92BF92CF9213
:100D3000DF92EF92FF920F931F93CF93DF93CDB784
:100D4000DEB7E9970FB6F894DEBF0FBECDBF6B01DB
:100D50005A0149012091D9013091DA014091DB011A
:100D60002FAB38AF49AF1F928F9382ED91E09F93E5
:100D70008F937E0187E3E80EF11CFF92EF920E94B1
:100D80005410B701CE01C1960E944D041CA61BA6AB
:100D90001EA61DA618AA1FA64AE0FE0131967F01D5
:100DA000BF01C4010E94EA0DF70101900020E9F79C
:100DB0003197AF014E195F09B701CE018B960E94A2
:100DC000C9036CED71E0CE0185960E944D04B5011A
:100DD000CE014F960E944D046CED71E0CE01499614
:100DE0000E944D04B601C7010E944D04B701CE0117
:100DF00043960E940104BE01675E7F4FCE01439679
:100E00000E94B603BE01615E7F4F0E94B603BE0121
:100E10006B5D7F4F0E94B603BE01655D7F4F0E94F0
:100E2000B603FC014481558160817181CE01C19678
:100E30000E948B03CE0143960E945D03C7010E946E
:100E40005D03CE0149960E945D03CE014F960E943C
:100E50005D03CE0185960E945D03CE018B960E94B4
:100E60005D0369E373E0CE0143960E944D04BE0129
:100E70006F5C7F4FC7010E940104BE016D5E7F4F12
:100E8000C7010E94B603B8010E94B603BC01CE019F
:100E900049960E940104CE0149960E949505CE0113
:100EA00049960E945D03C7010E945D03CE014396EF
:100EB0000E945D03CE01C1960E945D030F900F90CA
:100EC0000F900F900F900F90E9960FB6F894DEBF39
:100ED0000FBECDBFDF91CF911F910F91FF90EF908B
:100EE000DF90CF90BF90AF909F908F900895CF925A
:100EF000DF92EF92FF920F931F93CF93DF93CDB7C3
:100F0000DEB7AC970FB6F894DEBF0FBECDBF7B0146
:100F1000FB01C080D1806EED71E0CE0101960E9490
:100F20004D04BE016F5F7F4FCE0107960E94010402
:100F3000B701CE0107960E94B603BC01CE010D9603
:100F40000E9401048E01035F1F4F29E130E046E853
:100F500051E06FEE71E082E80E949306C8010E94A2
:100F60005D03CE0107960E945D03CE0101960E94AB
:100F70005D03CE018C969F938F9305EC11E01F9338
:100F80000F93DF92CF920E9477100F900F900F90E7
:100F90000F900F900F90019709F459C06BEF71E01B
:100FA000CE0149960E944D04B601CE0143960E949F
:100FB0004D046EEF71E0CE010D960E944D0467E086
:100FC00072E0CE0101960E944D04BE016F5F7F4F1B
:100FD000CE0107960E940104BE01635F7F4FCE01E0
:100FE00007960E94B603BE016D5E7F4F0E94B60356
:100FF000BE01675E7F4F0E94B603BC01CE014F96D3
:101000000E9401048E01015E1F4F23E030E040E2A8
:1010100052E065E272E080E00E949306C8010E94FF
:101020005D03CE0107960E945D03CE0101960E94EA
:101030005D03CE010D960E945D03CE0143960E9492
:101040005D03CE0149960E945D0310E06DC08CA542
:10105000813009F479C0B8F0823009F426C16BEF11
:1010600071E0CE0149960E944D04B601CE0143962F
:101070000E944D046EEF71E0CE010D960E944D046A
:1010800069E073E09ECFB701CE010D960E94010486
:101090006DEC71E0CE0107960E944D048091D9015C
:1010A0009091DA01A091DB018B8B9C8BAD8B1F9211
:1010B00080E98F9382ED91E09F938F938E010D5E77
:1010C0001F4F1F930F930E945410B801CE01019639
:1010D0000E944D044D815E8169817A81CE0107961F
:1010E0000E948B03CE0101960E945D03BE01695FE1
:1010F0007F4FCE0101960E940104CE0101960E940D
:101100009505CE0101960E945D03CE0107960E94CF
:101110005D03CE010D960E945D030F900F900F901E
:101120000F900F900F9011E0812FAC960FB6F894AE
:10113000DEBF0FBECDBFDF91CF911F910F91FF900A
:10114000EF90DF90CF900895B701CE0185960E9471
:101150000104EDA0FEA0CE018B969F938F931F9369
:101160000F93C70102969F938F930E9477100F9061
:101170000F900F900F900F900F90019709F459C0A6
:101180006BEF71E0CE0149960E944D04B701CE018C
:1011900043960E944D046EEF71E0CE010D960E94C1
:1011A0004D046BE272E0CE0101960E944D04BE0137
:1011B0006F5F7F4FCE0107960E940104BE01635FFF
:1011C0007F4FCE0107960E94B603BE016D5E7F4F32
:1011D0000E94B603BE01675E7F4F0E94B603BC014A
:1011E000CE014F960E9401048E01015E1F4F23E045
:1011F00030E040E252E065E272E080E00E94930657
:10120000C8010E945D03CE0107960E945D03CE01D6
:1012100001960E945D03CE010D960E945D03CE01F2
:1012200043960E945D03CE0149960E945D0310E043
:1012300023C08BA5811125C0EBE8F0E08491E7EC99
:10124000F0E00491E3EBF0E01491112381F08111BF
:101250000E94BB02E12FF0E0EE0FFF1FEC58FF4FA2
:10126000A591B491EC91E02384E592E011F487E537
:1012700092E00E940C0611E0CE0185960E945D036B
:1012800053CF6BEF71E0CE0149960E944D04B70138
:10129000CE0143960E944D046EEF71E0CE010D9693
:1012A0000E944D046AE572E07ECFB701CE018596BB
:1012B0000E940104EDA0FEA06E01FBE2CF0ED11C46
:1012C000DF92CF921F930F93C70102969F938F9344
:1012D0000E9477100F900F900F900F900F900F902B
:1012E0000197A1F06BEF71E0CE0149960E944D0489
:1012F000B701CE0143960E944D046EEF71E0CE011E
:101300000D960E944D046BE772E04DCF8BA58111C5
:1013100046C0DF92CF921F930F93C70104969F930D
:101320008F930E9477100F900F900F900F900F9057
:101330000F900197A1F06BEF71E0CE0149960E94EA
:101340004D04B701CE0143960E944D046EEF71E04B
:10135000CE010D960E944D0464EA72E024CF8BA565
:101360008823B1F08130C9F06BEF71E0CE0149966E
:101370000E944D04B701CE0143960E944D046EEFCA
:1013800071E0CE010D960E944D046AEC72E00BCF25
:1013900060E08DE00E94E4026ECF61E0FACF6BEF77
:1013A00071E0CE0149960E944D04B701CE014396EB
:1013B0000E944D046EEF71E0CE010D960E944D0427
:1013C00068EE72E0F0CE1F920F920FB60F921124CA
:1013D0002F933F934F935F936F937F938F939F933D
:1013E000AF93BF93EF93FF938091B900887F8036CE
:1013F00009F44AC0F0F5883209F4A7C018F5803125
:1014000009F49BC0B8F4882309F4F9C0883009F4C2
:1014100094C0FF91EF91BF91AF919F918F917F9178
:101420006F915F914F913F912F910F900FBE0F9051
:101430001F901895883109F488C0803251F7809345
:10144000DC0314C0803409F49DC040F48033B9F348
:101450008833F9F68093DC0385ECB0C0803509F45D
:1014600085C0883509F496C0883499F60E949200A8
:10147000D0CF883909F48CC038F5883729F050F47A
:10148000883611F0803729F683E08093DD031092CF
:10149000DB0357C0883809F47BC0803919F08038E5
:1014A00009F0B7CF8091DB03803208F071C0E09182
:1014B000DB0381E08E0F8093DB038091BB00F0E0C3
:1014C000E554FC4F80833DC0803B39F0E0F4803A26
:1014D00009F479C0883A09F09CCF84E08093DD0359
:1014E0001092B8031092B703E091B503F091B603E0
:1014F00009958091B70381110FC081E08093B703F4
:101500001092950309C0803C09F4A6CF883C09F4E9
:10151000A3CF883B09F07DCFE091B80381E08E0F27
:101520008093B803F0E0EB56FC4F80818093BB00C2
:101530009091B8038091B70329C0809102048093F1
:10154000BB0085EC8093BC0064CF90910104809136
:101550000004981758F5E091010481E08E0F809304
:101560000104F0E0E052FC4F8081E9CFE0910104FA
:1015700081E08E0F809301048091BB00F0E0E05287
:10158000FC4F808390910104809100049817C8F269
:1015900085E8D8CFE091010481E08E0F80930104AB
:1015A0008091BB00F0E0E052FC4F80838091DF032C
:1015B00081115CCF81E08093DE0384EA8093BC00DC
:1015C0001092DD0326CF85EC8093BC001092DD03E2
:1015D0008091DB03803230F4E091DB03F0E0E554EE
:1015E000FC4F10826091DB0370E0E091B903F09151
:1015F000BA038BEB93E009951092DB030ACF1092AC
:10160000DC0334CF1F920F920FB60F9211242F9349
:101610003F934F935F936F937F938F939F93AF937A
:10162000BF93EF93FF938FE094E00E94B101FF918D
:10163000EF91BF91AF919F918F917F916F915F914A
:101640004F913F912F910F900FBE0F901F901895C3
:101650001F920F920FB60F9211242F938F939F9387
:10166000EF93FF93E0911F04F09120048081E091BB
:101670002504F091260482FD1BC0908180912804EE
:101680008F5F8F7320912904821741F0E091280425
:10169000F0E0E15FFB4F958F80932804FF91EF917D
:1016A0009F918F912F910F900FBE0F901F901895C3
:1016B0008081F4CF1F920F920FB60F9211242F93B7
:1016C0003F938F939F93AF93BF9380914A039091E1
:1016D0004B03A0914C03B0914D033091490323E09B
:1016E000230F2D3758F50196A11DB11D20934903F5
:1016F00080934A0390934B03A0934C03B0934D0304
:101700008091450390914603A0914703B09148030F
:101710000196A11DB11D8093450390934603A093AC
:101720004703B0934803BF91AF919F918F913F9131
:101730002F910F900FBE0F901F90189526E8230F42
:101740000296A11DB11DD2CFE3E0F4E01382128214
:1017500088EE93E0A0E0B0E084839583A683B7830E
:1017600020EA31E031832083EFE0F4E0138212823B
:1017700084839583A683B78382EB91E091838083F2
:1017800085EC90E09587848784EC90E09787868746
:1017900080EC90E0918B808B81EC90E0938B828B3E
:1017A00082EC90E0958B848B86EC90E0978B868B17
:1017B000118E128E138E148E0895CF93DF93CDB7B2
:1017C000DEB76A970FB6F894DEBF0FBECDBF789430
:1017D00084B5826084BD84B5816084BD85B5826036
:1017E00085BD85B5816085BD80916E0081608093E7
:1017F0006E00109281008091810082608093810050
:10180000809181008160809381008091800081605F
:10181000809380008091B10084608093B1008091BA
:10182000B00081608093B00080917A0084608093E2
:101830007A0080917A00826080937A0080917A00A9
:10184000816080937A0080917A00806880937A002A
:101850001092C100E7ECF0E02491E3EBF0E084911A
:10186000882399F090E0880F991FFC01E456FF4F00
:10187000A591B491FC01EE56FF4F859194918FB7DD
:10188000F894EC91E22BEC938FBF82E080934103BC
:101890001092420391E09093400320E031E03093B6
:1018A00044032093430327E737E030933E0320931C
:1018B0003D032AE020933C03E0911F04F0912004B3
:1018C0008083E0911B04F0911C041082E0911D04C0
:1018D000F0911E048FEC808310922704E091230482
:1018E000F091240486E08083E0912104F0912204A9
:1018F000808180618083E0912104F09122048081C5
:1019000088608083E0912104F091220480818068C6
:101910008083E0912104F091220480818F7D808377
:1019200028EEC22E23E0D22EE12CF12CC09213041B
:10193000D0921404E0921504F092160480910201F2
:10194000880F8093BA0023EC30E03093B6032093E5
:10195000B50324EC30E03093BA032093B90310921E
:10196000900310928F03109294031092930310929D
:10197000DD039093DF031092DE0361E082E10E94B9
:10198000E40261E083E10E94E4028091B9008E7F6D
:101990008093B9008091B9008D7F8093B90088E46D
:1019A0008093B80085E48093BC00C0920704D09275
:1019B0000804E0920904F0920A0489EB92E0909303
:1019C00092038093910365E173E0CE0101960E943A
:1019D0004D048E010F5F1F4F2EE030E046E951E0CD
:1019E00062E273E082E80E949306C8010E945D03F0
:1019F00030E0E32E30E0F32E6DEC71E0CE01039683
:101A00000E944D048FE094E00E94A50140913C03A8
:101A10006FE074E0181619066CF080918F039091B6
:101A20009003891B990B1816190644F540913C0345
:101A300063E074E0CE0109960E946204BE01675F14
:101A40007F4FCE0103960E941203CE0109960E9499
:101A50005D03BE016D5F7F4FCE0109960E940104B8
:101A6000BE016F5F7F4FCE0109960E940A04182FB6
:101A7000CE0109960E945D0311119EC0CE0103960E
:101A80000E945D03E114F10409F4B6CF0E9439020B
:101A9000882309F4B1CF0E940000AECFC0903D036F
:101AA000D0903E03BE016D5F7F4FCE010F960E9426
:101AB0000104AB88BC8884E0882E912C84E0A816B1
:101AC000B10420F4450194E0A92EB12C6DEC71E035
:101AD000CE0109960E944D040B891C89801691063F
:101AE00020F5A016B10608F48501EF85F889E00F0E
:101AF000F11FB08010826F857889680D791D61159E
:101B0000710509F454C0FB0101900020E9F73197F9
:101B1000AF01461B570BCE0109960E94C9038F8562
:101B20009889080F191FF801B082BE01675F7F4FC7
:101B30008A81F6010995182FCE0109960E945D034E
:101B4000CE010F960E945D03111198CF6BE273E0F6
:101B5000CE0145960E944D04BE016B5E7F4FCE01C3
:101B60000F960E940104BE016D5F7F4FCE010F965C
:101B70000E94B603BC01CE0109960E9401048E01A9
:101B8000075F1F4F23E030E040E252E065E272E081
:101B900080E00E949306C8010E945D03CE010F966B
:101BA0000E945D03CE0145960E945D0367CFCE0182
:101BB00009960E944B03B3CF9981809141039817F6
:101BC00009F46CCFCE0101960E94990457CFF89486
:101BD0000C940316BB274A3031F4992322F4BDE25A
:101BE000909581959F4F0C94F60DBB27FB015527CF
:101BF000AA27880F991FAA1FA41710F0A41B83956A
:101C00005051B9F7A05DAA3308F0A95DA1930097E0
:101C100079F7B111B1931192CB010C94180E911177
:101C20000C94280E803219F089508550C8F7089519
:101C3000DC01FC01672F71917723E1F7329704C033
:101C40007C916D9370836291AE17BF07C8F30895BE
:101C50009927882708952F923F924F925F926F9213
:101C60007F928F929F92AF92BF92CF92DF92EF922C
:101C7000FF920F931F93CF93DF93CDB7DEB7CA1BAD
:101C8000DB0B0FB6F894DEBF0FBECDBF09942A88D8
:101C9000398848885F846E847D848C849B84AA8480
:101CA000B984C884DF80EE80FD800C811B81AA810D
:101CB000B981CE0FD11D0FB6F894DEBF0FBECDBFD8
:101CC000ED0108950F931F93CF93DF938230910519
:101CD00010F482E090E0E091AE04F091AF0430E0C7
:101CE00020E0B0E0A0E0309799F42115310509F427
:101CF0004AC0281B390B24303105D8F58A819B81D5
:101D00006115710589F1FB0193838283FE0111C086
:101D1000408151810281138148175907E0F048172B
:101D2000590799F4109761F012960C931297139635
:101D30001C933296CF01DF91CF911F910F9108959F
:101D40000093AE041093AF04F4CF2115310551F088
:101D50004217530738F0A901DB019A01BD01DF01E9
:101D6000F801C1CFEF01F9CF9093AF048093AE0497
:101D7000CDCFFE01E20FF31F8193919322503109E1
:101D800039832883D7CF2091AC043091AD04232B25
:101D900041F420918201309183013093AD0420936E
:101DA000AC0420918001309181012115310541F46D
:101DB0002DB73EB74091840150918501241B350B0E
:101DC000E091AC04F091AD04E217F307A0F42E1BF0
:101DD0003F0B2817390778F0AC014E5F5F4F24178F
:101DE000350748F04E0F5F1F5093AD044093AC048D
:101DF000819391939FCFF0E0E0E09CCFCF93DF936E
:101E00000097E9F0FC01329713821282A091AE0490
:101E1000B091AF04ED0130E020E01097A1F42081F3
:101E20003181820F931F2091AC043091AD042817AB
:101E3000390709F061C0F093AD04E093AC04DF9181
:101E4000CF910895EA01CE17DF07E8F54A815B815B
:101E50009E0141155105B1F7E901FB83EA834991E0
:101E60005991C40FD51FEC17FD0761F48081918152
:101E70000296840F951FE90199838883828193815B
:101E80009B838A83F0E0E0E012968D919C911397FA
:101E90000097B9F52D913C911197CD010296820FD3
:101EA000931F2091AC043091AD042817390739F6FF
:101EB000309751F51092AF041092AE04B093AD0478
:101EC000A093AC04BCCFD383C28340815181840FE3
:101ED000951FC817D90761F44E5F5F4F88819981BC
:101EE000480F591F518340838A819B81938382834A
:101EF0002115310509F0B0CFF093AF04E093AE04A3
:101F00009ECFFD01DC01C0CF13821282D7CFB0E09B
:101F1000A0E0EDE8FFE00C942D0E8C01009751F449
:101F2000CB010E94620E8C01C801CDB7DEB7E0E1A3
:101F30000C94490EFC01E60FF71F9C012250310959
:101F4000E217F30708F49DC0D901CD91DC911197F8
:101F5000C617D70798F0C530D10530F3CE010497E6
:101F60008617970708F3C61BD70B2297C193D19307
:101F70006D937C93CF010E94FE0ED6CF5B01AC1A0D
:101F8000BD0A4C018C0E9D1EA091AE04B091AF0411
:101F9000512C412CF12CE12C109731F58091AC049F
:101FA0009091AD048815990509F05CC04616570656
:101FB00008F058C08091800190918101009741F410
:101FC0008DB79EB74091840150918501841B950B7C
:101FD000E817F90708F055C0F093AD04E093AC049E
:101FE000F90171836083A0CF8D919C911197129616
:101FF0006C90129713967C901397A815B90559F514
:102000006C0142E0C40ED11CCA14DB0420F1AC0107
:102010004A195B09DA011296159780F06282738281
:1020200051834083D9016D937C93E114F10471F0E5
:10203000D7011396FC93EE93129776CF22968C0FCE
:102040009D1FF90191838083F301EFCFF093AF04DB
:10205000E093AE0469CF4816590608F42C017D01BF
:10206000D3019ACFCB010E94620E7C01009749F008
:10207000AE01B8010E944410C8010E94FE0E870103
:1020800053CF10E000E050CFFB01DC0102C0019013
:102090000D9241505040D8F70895FB01DC010190AA
:1020A0000D920020E1F70895AEE0B0E0EAE5F0E13E
:1020B0000C94390E0D891E8986E08C831A8309835E
:1020C0008FEF9FE79E838D83AE01475E5F4F6F89E1
:1020D000788DCE0101960E9490102F813885020FD5
:1020E000131FF80110822E96E4E00C94550EAEE01A
:1020F000B0E0EDE7F0E10C943B0E85E08C838B893A
:102100009C899A838983AE01495E5F4F6D897E8980
:10211000CE0101960E94F5132E96E2E00C94570E24
:10212000ABE0B0E0E6E9F0E10C942B0E7C013B0162
:102130008A01FC0117821682838181FFC8C1CE010A
:1021400001965C01F7019381F30193FD859193FF63
:1021500081913F01882309F453C1853239F493FDFD
:10216000859193FF81913F01853229F4B70190E079
:102170000E945715E7CF912C212C312CFFE1F3154C
:1021800038F08B3211F190F4803209F1833229F169
:1021900037FC3CC020ED280F2A3050F536FE20C019
:1021A0008AE0989E200D1124922E06C08D3291F067
:1021B000803371F7689430F8F30193FD859193FFB4
:1021C00081913F018111DACF21C0689431F8689480
:1021D00032F8F2CF689433F8EFCF689434F8ECCF4C
:1021E000EAE02E9E200D1124222E689435F8E4CFCB
:1021F0008E3229F436FC04C1689436F8DDCF8C3673
:1022000019F4689437F8D8CF8836B1F2982F9F7DAB
:1022100095549330E0F08336A1F18337C1F18335D3
:1022200009F063C02801F2E04F0E511CF801C08094
:10223000D180692D70E036FC02C06FEF7FEFC601E0
:102240000E9405154C01689437F882010AC00C5FA2
:102250001F4FFFE3F98388248394912C6501E89450
:1022600037F833FE2DC0522C8114910471F555209E
:1022700009F468CFB70180E290E00E9457155A94A4
:10228000F6CFF801808189830E5F1F4FE4CF2801CC
:10229000F2E04F0E511CF801C080D180692D70E032
:1022A00036FC02C06FEF7FEFC6010E9410154C0193
:1022B0008201D5CFB70180E290E00E9457152A94A1
:1022C0002814190409F0B0F7CECFF60137FC859138
:1022D00037FE81916F01B70190E00E9457155110B0
:1022E0005A94F1E08F1A9108BFCF843619F08936DD
:1022F00009F077C0F80137FE6BC06081718182817F
:1023000093810C5F1F4FF32DFF763F2E97FF09C07F
:1023100090958095709561957F4F8F4F9F4F6894F2
:1023200037F82AE030E0A5010E949F15C82ECA1890
:102330008C2C432C36FE0CC0E89440F8C91440F4B1
:1023400034FE05C032FC03C0F32DFE7E4F2E892CD7
:1023500044FE95C0FE01EC0DF11D8081803309F033
:1023600087C0242D297E422E842D8870582E43FC50
:1023700095C040FE8FC09C2C821418F42C0C922C1B
:10238000981844FE91C0B70180E390E00E94571571
:1023900042FE09C088E790E041FE02C088E590E077
:1023A000B7010E945715C91408F48AC0CA94D12CE9
:1023B0009FEFC91AD90ACA0CDB1CF60182916F0182
:1023C000B70190E00E945715AC14BD04B1F74FCF90
:1023D00060817181072E000C880B990B0E5F1F4FD7
:1023E00092CFD32CE894D4F82AE030E0853739F145
:1023F000232D297FD22E8F3601F148F48835A9F09C
:10240000F701868197812B96E2E10C94470E803785
:1024100049F08837A9F7D4FE02C06894D2F820E1C9
:1024200030E00DC06894D4F8F6CF34FE03C0822F9C
:102430008660D82E20E132E002C028E030E0F801CA
:10244000D7FE0FC060817181828193810C5F1F4F25
:10245000A5010E949F15C82ECA183D2CE89437F894
:1024600067CF6081718190E080E00E5F1F4FF0CFF9
:1024700042FC02C0839478CF8394839475CF842DDB
:10248000867809F471CFF6CFB70180E290E00E9420
:10249000571583948214C0F3512C73CF522C5818C3
:1024A000821408F46ECFF8CF842D867809F47BCFA0
:1024B0008BE241FE80E247FC8DE2B70190E071CFF4
:1024C000B70180E390E00E9457159A946CCF8FEF8C
:1024D0009FEF99CF20FD09C0FC0123FD05C022FF1D
:1024E00002C07383628351834083089544FD17C003
:1024F00046FD1DC0DB01FC01AA0FBB1FEE1FFF1F25
:102500001094D1F76A0F7B1F8E1F9F1F660F771FD6
:10251000881F991F620F711D811D911D089533E061
:10252000660F771F881F991F3150D1F7F3CF34E022
:10253000F7CF0F931F93CF93DF938C01C8010E94B5
:102540001B15EC0197FD08C00E940F0E892BB1F7F7
:10255000B801CE010E948715CE01DF91CF911F9166
:102560000F9108958F929F92AF92BF92EF92FF9238
:102570000F931F93CF93DF938C01D62F7A01B22E46
:102580000E941B159C0133272B32310529F02D3277
:102590003105A9F46894B7F8D15061F480E0DF9177
:1025A000CF911F910F91FF90EF90BF90AF909F90B0
:1025B0008F900895C8010E941B1597FDEFCFCB2D7A
:1025C000CD7F2B2D2073F9F48033E9F4AA24AA944B
:1025D000AD0E89F0C8010E941B1597FD0CC0282F75
:1025E0002F7D283561F4C264D25029F0C8010E94C1
:1025F0001B1597FF08C0812C912C54011BC0B6FEFF
:102600002BC0C260DA2D812C912C540120ED280FB3
:10261000283028F1C4FD09C02A3008F1C6FF05C0E2
:102620002F7D3FEE320F3630C8F0B8010E9487157B
:10263000C1FFB4CFC7FF08C0B094A0949094809419
:10264000811C911CA11CB11C2C2FB501A401C70138
:102650000E946A1281E0A3CFC261D4CF27504C2FD1
:10266000C501B4010E9476124B015C01C260D150D9
:1026700009F3C8010E941B1597FFC8CFD9CFA0E26C
:10268000B0E0E5E4F3E10C94300E5C01962E7A01A3
:10269000CE0101966C0180E2F60111928A95E9F76C
:1026A000F501B381890130E020E0712C812CA0E09C
:1026B00041E050E0F801B3FD8591B3FF8191982F7F
:1026C0008F01811107C010E000E0C801A096EDE085
:1026D0000C944C0E8E3519F42115310541F1A217D9
:1026E00013064CF48D3549F18D3229F4811006C062
:1026F000882483941DC0882009F464C0E92FE695DE
:10270000E695E695EC0DFD2DF11D892F8770BA0138
:1027100001C0660F8A95EAF78081682B608379167D
:1027200051F0971510F49F5FE9CF9150E7CFA1E0EA
:102730002F5F3F4FBFCF812CFBCF882019F08E81B8
:1027400080628E83AA2359F0F6019E012F5D3F4FD0
:102750008081809580833196E217F307C9F788243A
:102760008394C5010E941B1597FD16C0E82FE695BE
:10277000E695E695EC0DFD2DF11D208130E0AC01D4
:102780004770552702C0359527954A95E2F720FDF9
:1027900006C0B5010E948715882069F094CFE11426
:1027A000F10429F0F7018083C70101967C019A9416
:1027B000812C9110D6CFE114F10409F486CFF701F2
:1027C000108283CFE82FE695E695E695EC0DFD2D7A
:1027D000F11D982F9770BA0101C0660F9A95EAF71C
:1027E0009081692B6083782EA3CFB0E0A0E0EBEF5F
:1027F000F3E10C942E0E6C01EB015A01FC011782DF
:102800001682512CF601E380FE01E3FC8591E3FE84
:102810008191182FEF018823E9F090E00E940F0EBC
:10282000892B21F0C6010E949912ECCF153241F498
:10283000FE01E3FC1591E3FE1191EF01153269F4FD
:10284000C6010E941B1597FD8EC01817D9F2B6015C
:102850000E948715852D90E08AC000E01A3231F47D
:10286000E3FC1591E3FE1191EF0101E0F12C20ED65
:10287000210F2A3048F101FF37C0FF2059F31836E5
:10288000B1F11C3609F43DC0112321F3612F70E032
:1028900088E690E00E94FA14892BE1F2912C812CB9
:1028A00000FD06C0F50180809180C50102965C01A3
:1028B0001E3679F5F6014681578170E060E0202FE1
:1028C000C4010E946A129ECF02606F2D70E090E0FA
:1028D00080E040E20E947612F62EFE01E3FC1591A4
:1028E000E3FE1191EF01C3CFFF24FA94C8CFFE019C
:1028F000E3FC1591E3FE1191EF01183609F0C4CF06
:1029000008600460FE01E3FC1591E3FE1191EF0104
:10291000BBCF1336C1F401FD02C0FF24F394C601FE
:102920000E941B1597FD1FC08114910429F0F4012A
:102930008083C40101964C01FA94F110F0CF00FDA0
:1029400061CF53945FCF1B35B9F49E01A4016F2D65
:10295000C6010E943F13EC01892B89F7F6018381A0
:10296000807309F477CF8FEF9FEF511073CFCDB7FE
:10297000DEB7EFE00C944A0EC6010E94991297FD53
:10298000F2CF1F36A9F130F4143641F0193639F080
:10299000006405C01337B9F01537D1F70062202F56
:1029A000A4016F2DC6010E94B2128111C8CFD6CFEB
:1029B0008114910429F0F4016082C40101964C0154
:1029C000FA94FF2071F0C6010E941B153C0197FD8F
:1029D00008C00E940F0E892B59F3B601C3010E9453
:1029E00087158114910409F4AACFF4011082A7CFAE
:1029F0000061D5CFFC010590061621F00020D9F723
:102A0000C00108953197CF010895FC0105906150F0
:102A100070400110D8F7809590958E0F9F1F0895F4
:102A2000FC016150704001900110D8F7809590959D
:102A30008E0F9F1F0895CF93DF93EC012B8120FF12
:102A40001AC026FF0CC02F7B2B838E819F8101969D
:102A50009F838E838A8190E0DF91CF91089522FF3A
:102A600018C0E881F9818081082E000C990B00972D
:102A700029F420622B838FEF9FEFEECF3196F983FD
:102A8000E8832E813F812F5F3F4F3F832E8399271D
:102A9000E3CFEA85FB85099597FFF3CF2B8101965C
:102AA00021F080E2822B8B83E6CF80E1FBCF0F9376
:102AB0001F93CF93DF93182F092FEB018B8181FD9B
:102AC00009C01FEF0FEF812F902FDF91CF911F9142
:102AD0000F91089582FF14C02E813F818C819D81CA
:102AE000281739073CF4E881F981CF0101969983D1
:102AF000888310838E819F8101969F838E83E3CF8D
:102B0000E885F985812F0995892BA1F3DACFFB019F
:102B1000238120FF11C026FD0FC08F3F980771F061
:102B200082832F7D206423832681378121503109C0
:102B300037832683992708958FEF9FEF0895FA0131
:102B4000AA27283051F1203181F1E8946F936E7FEC
:102B50006E5F7F4F8F4F9F4FAF4FB1E03ED0B4E0DD
:102B60003CD0670F781F891F9A1FA11D680F791F1E
:102B70008A1F911DA11D6A0F711D811D911DA11D2F
:102B800020D009F468943F912AE0269F112430193F
:102B9000305D3193DEF6CF010895462F4770405DDA
:102BA0004193B3E00FD0C9F7F6CF462F4F70405D89
:102BB0004A3318F0495D31FD4052419302D0A9F7E4
:102BC000EACFB4E0A6959795879577956795BA95DE
:102BD000C9F700976105710508959B01AC010A2EA4
:102BE00006945795479537952795BA95C9F7620F7B
:102BF000731F841F951FA01D0895EE0FFF1F0590E2
:0A2C0000F491E02D0994F894FFCF41
:102C0A0001000203040000000000000000000000B0
:102C1A0000000000000000000000000000000000AA
:102C2A00000000000000000000000000000000009A
:102C3A00000000000000000000000000000000008A
:102C4A00000000000000000000000000000000007A
:102C5A00000000000000000000000000000000006A
:102C6A00000000000000000000000000000000005A
:102C7A00000000000000000000000000000000004A
:102C8A000000B0042000726571756573745F686135
:102C9A006E646C65720073657475700000000000E4
:102CAA0045011801B602EE001101FE00EF00000016
:102CBA000000D201890274011902A501830197015A
:102CCA0025326868782532686878000D0A00253050
:102CDA003278253032780020202020003A005472C1
:102CEA0079696E6720746F20657865633A2000728F
:102CFA006571756573742E6370700027290020282A
:102D0A00676F743A2027004661696C656420746FA6
:102D1A0020706172736520636D6420636F6465005F
:102D2A0066756E630073616C7574004661696C65E3
:102D3A006420746F20706172736520636F6D706FA9
:102D4A006E656E7420636F646520666F72202767F4
:102D5A0065742700303100303000496E76616C6945
:102D6A006420636F6D706F6E656E7420636F646547
:102D7A0020666F72202767657427004661696C6553
:102D8A006420746F20706172736520636F6D706F59
:102D9A006E656E7420636F646520666F7220277398
:102DAA00657427004661696C656420746F207061E0
:102DBA007273652073746174757320636F64652020
:102DCA00666F7220277365742700496E76616C6995
:102DDA00642073746174757320636F646520666F11
:102DEA007220277365742700496E76616C696420C6
:102DFA00636F6D706F6E656E7420636F64652066B5
:102E0A006F7220277365742700496E76616C696456
:102E1A0020636D6400496E6974207375636365731A
:102E2A0073006D61696E2E637070004661696C652E
:0C2E3A006420746F20657865633A200006
:00000001FF
