:100000000C9464000C948C000C948C000C948C0068
:100010000C948C000C948C000C948C000C948C0030
:100020000C948C000C948C000C948C000C948C0020
:100030000C948C000C948C000C948C000C948C0010
:100040000C943E040C948C000C940C040C94E60369
:100050000C948C000C948C000C948C000C948C00F0
:100060000C9488040C948C006364696E6F707375D3
:1000700078585B000000000800020100000304073C
:100080000000000000000000000000002500280023
:100090002B0000000000240027002A0004040404B0
:1000A0000404040402020202020203030303030322
:1000B00001020408102040800102040810200102FF
:1000C00004081020A705AD0711241FBECFEFD8E00C
:1000D000DEBFCDBF23E0A0E6B2E001C01D92A23B8F
:1000E000B207E1F712E0A0E0B1E0ECE0FAE102C013
:1000F00005900D92A036B107D9F710E0C3E6D0E025
:1001000004C02197FE010E94F30CC236D107C9F743
:100110000E942F060C94B3070C940000FC01538D31
:10012000448D252F30E0842F90E0821B930B5417D1
:1001300010F0CF96089501970895FC01918D828D5E
:10014000981761F0A28DAE0FBF2FB11D5D968C91F7
:10015000928D9F5F9F73928F90E008958FEF9FEF36
:100160000895FC01918D828D981731F0828DE80FF2
:10017000F11D858D90E008958FEF9FEF0895FC01AC
:10018000918D228D892F90E0805C9F4F821B910979
:100190008F7399270895FC01A48DA80FB92FB11D65
:1001A000A35ABF4F2C91848D90E001968F739927AD
:1001B000848FA689B7892C93A089B1898C9180649A
:1001C0008C93938D848D981306C00288F389E02D5B
:1001D00080818F7D80830895EF92FF920F931F930C
:1001E000CF93DF93EC01F62E81E0888F9B8D8C8D71
:1001F000981316C0E889F989808185FF11C0EE89BE
:10020000FF896083E889F98980818064808381E047
:1002100090E0DF91CF911F910F91FF90EF900895A3
:100220000B8D10E00F5F1F4F0F731127E02E8C8D89
:100230008E110CC00FB607FCFACFE889F9898081CE
:1002400085FFF5CFCE010E94CB00F1CFEB8DEC0FF7
:10025000FD2FF11DE35AFF4FF0820B8FEA89FB89D6
:1002600080818062D3CFCF93DF93EC01888D882388
:10027000B9F0AA89BB89E889F9898C9185FD03C009
:10028000808186FD0DC00FB607FCF7CF8C9185FFEE
:10029000F2CF808185FFEDCFCE010E94CB00E9CF68
:1002A000DF91CF9108958DEF92E00E94BF0021E091
:1002B000892B09F420E0822F089580E090E0892BBB
:1002C00029F00E94530181110C9400000895CF93EE
:1002D000DF93EC012FB7F8948091F9029091FA0224
:1002E000A091FB02B091FC022FBF88879987AA8753
:1002F000BB87E881F9810284F385E02DCE01099561
:1003000097FF1EC02FB7F8948091F9029091FA02DE
:10031000A091FB02B091FC022FBF488559856A85E8
:100320007B85841B950BA60BB70B4C815D816E8181
:100330007F8184179507A607B707D8F28FEF9FEF45
:10034000DF91CF910895AF92BF92CF92DF92EF925B
:10035000FF920F931F93CF93DF936C017B018B016F
:10036000040F151FEB015E01AE18BF08C017D107BF
:1003700059F06991D601ED91FC910190F081E02D49
:10038000C6010995892B79F7C501DF91CF911F919E
:100390000F91FF90EF90DF90CF90BF90AF900895B6
:1003A00085ED8093BC008091BC0084FDFCCF109251
:1003B000CE0208952091A802260F3327331F213241
:1003C0003105ECF42091CE02FC0190E080E0243075
:1003D00069F082E00895A091A8022191AC014A57EA
:1003E0005D4FA40FB52FB11D2C930196861798F37E
:1003F0008091A802680F6093A80280E0089581E0D0
:100400000895089508950895E091830280918202ED
:10041000E81730F4F0E0EE59FD4F808190E0089548
:100420008FEF9FEF089590918302809182022FEFCA
:100430003FEF981748F4E92FF0E0EE59FD4F208187
:1004400030E09F5F90938302C901089580918202FA
:1004500090918302891B990B0895CF93DF93CB0171
:10046000EA01642F0E94DA01CE01DF91CF91089555
:10047000CF93DF931F92CDB7DEB7698361E0CE01E2
:1004800001960E94DA0181E090E00F90DF91CF9118
:10049000089590E080E00895089590E0FC01EC5804
:1004A000FF4F2491FC01E055FF4F3491FC01E456CD
:1004B000FF4FE491EE23C9F0222339F0233001F1FC
:1004C000A8F4213019F1223029F1F0E0EE0FFF1FDE
:1004D000E857FF4FA591B4918FB7F894EC91611153
:1004E00026C030953E233C938FBF08952730A9F056
:1004F0002830C9F0243049F7809180008F7D03C0F7
:10050000809180008F7780938000DFCF84B58F77D4
:1005100084BDDBCF84B58F7DFBCF8091B0008F771A
:100520008093B000D2CF8091B0008F7DF9CF3E2B69
:10053000DACFFB0101900020E9F73197AF01461BAC
:10054000570BDC01ED91FC910280F381E02D0994C1
:10055000CF93DF93FB014681578162817381808154
:10056000813081F48DEF92E00E94A301EC0161E300
:1005700072E08DEF92E00E9499028C0F9D1FDF9137
:10058000CF9108958AE993E00E942D02EC0161E386
:1005900072E08AE993E0EFCF0F931F93CF93DF933D
:1005A0008C01EB01FC01808191810097E1F0688171
:1005B000798161157105A9F0428153812C813D81BA
:1005C0004217530770F00E94E4098C819D81F80165
:1005D000958384831D821C82DF91CF911F910F919F
:1005E00008950E94950888819981F80191838083FC
:1005F0008A819B81938382838C819D81958384836F
:10060000198218821B821A82E5CF0F931F93CF9312
:10061000DF93EC018B0188819981009759F02A8141
:100620003B812617370730F081E0DF91CF911F9192
:100630000F910895B8016F5F7F4F0E941E090097C8
:1006400059F0998388831B830A832C813D81232B56
:1006500059F7FC011082E8CF80E0E7CFCF92DF921C
:10066000EF92FF920F931F93CF93DF9300D0CDB7FC
:10067000DEB78C016B01FC011182108213821282A1
:100680001582148270E060E00E940503F801208169
:100690003181811133C02115310519F0C9010E9442
:1006A0009508F80111821082158214821382128239
:1006B000C6010E94670197FD29C08A30910531F17A
:1006C00089831A82F801E480F580FFEFEF1AFF0AB0
:1006D000B701C8010E940503882351F3F801208166
:1006E000318184819581BE016F5F7F4F820F931F9F
:1006F0000E94E409F801F582E482DACF15821482BF
:1007000063E372E0C9010E94E409D2CFC8010F90EF
:100710000F90DF91CF911F910F91FF90EF90DF909D
:10072000CF900895EF92FF920F931F93CF93DF9393
:1007300000D000D000D0CDB7DEB78B018DEF92E0B6
:100740000E94BF007C016DEF72E0181619065CF084
:10075000E090820280918302E81AFF081E141F04B1
:100760003CF56AE973E0CE0101960E942E03BE01BA
:100770006F5F7F4FC80102960E94CC0289819A81E7
:100780000E949508C80101969F938F931F930F9322
:1007900084E392E09F938F93F80183818F9382810A
:1007A0008F930E94EB090FB6F894DEBF0FBECDBF4A
:1007B000C70126960FB6F894DEBF0FBECDBFDF91FE
:1007C000CF911F910F91FF90EF9008951F920F927C
:1007D0000FB60F9211242F933F934F935F936F9314
:1007E0007F938F939F93AF93BF93EF93FF938DEF7F
:1007F00092E00E94CB00FF91EF91BF91AF919F914A
:100800008F917F916F915F914F913F912F910F90B9
:100810000FBE0F901F9018951F920F920FB60F9258
:1008200011242F938F939F93EF93FF93E0910D03E8
:10083000F0910E038081E0911303F091140382FD87
:100840001BC09081809116038F5F8F7320911703D7
:10085000821741F0E0911603F0E0E350FD4F958FD1
:1008600080931603FF91EF919F918F912F910F909D
:100870000FBE0F901F9018958081F4CF1F920F929A
:100880000FB60F9211242F933F938F939F93AF93A3
:10089000BF938091F9029091FA02A091FB02B0916E
:1008A000FC023091F80223E0230F2D3758F5019612
:1008B000A11DB11D2093F8028093F9029093FA02D2
:1008C000A093FB02B093FC028091F4029091F50298
:1008D000A091F602B091F7020196A11DB11D80937F
:1008E000F4029093F502A093F602B093F702BF9141
:1008F000AF919F918F913F912F910F900FBE0F90CD
:100900001F90189526E8230F0296A11DB11DD2CF86
:100910001F920F920FB60F9211242F933F934F9374
:100920005F936F937F938F939F93AF93BF93EF9357
:10093000FF938091B900887F803609F44AC0F0F5B2
:10094000883209F4A7C018F5803109F49BC0B8F4C7
:10095000882309F4F9C0883009F494C0FF91EF911D
:10096000BF91AF919F918F917F916F915F914F91C7
:100970003F912F910F900FBE0F901F9018958831C7
:1009800009F488C0803251F78093CD0214C08034BE
:1009900009F49DC040F48033B9F38833F9F68093AD
:1009A000CD0285ECB0C0803509F485C0883509F4E6
:1009B00096C0883499F60E94D001D0CF883909F4C6
:1009C0008CC038F5883729F050F4883611F080371C
:1009D00029F683E08093CE021092CC0257C088386B
:1009E00009F47BC0803919F0803809F0B7CF8091C5
:1009F000CC02803208F071C0E091CC0281E08E0F11
:100A00008093CC028091BB00F0E0E455FD4F8083E1
:100A10003DC0803B39F0E0F4803A09F479C0883A6F
:100A200009F09CCF84E08093CE021092A90210922C
:100A3000A802E091A602F091A70209958091A80270
:100A400081110FC081E08093A8021092860209C034
:100A5000803C09F4A6CF883C09F4A3CF883B09F079
:100A60007DCFE091A90281E08E0F8093A902F0E092
:100A7000EA57FD4F80818093BB009091A90280913D
:100A8000A80229C08091F3028093BB0085EC80937B
:100A9000BC0064CF9091F2028091F102981758F552
:100AA000E091F20281E08E0F8093F202F0E0EF52CB
:100AB000FD4F8081E9CFE091F20281E08E0F8093BB
:100AC000F2028091BB00F0E0EF52FD4F80839091E5
:100AD000F2028091F1029817C8F285E8D8CFE09130
:100AE000F20281E08E0F8093F2028091BB00F0E071
:100AF000EF52FD4F80838091D00281115CCF81E065
:100B00008093CF0284EA8093BC001092CE0226CF5D
:100B100085EC8093BC001092CE028091CC02803292
:100B200030F4E091CC02F0E0E455FD4F108260918A
:100B3000CC0270E0E091AA02F091AB028CEA92E064
:100B400009951092CC020ACF1092CD0234CF1092A8
:100B500000031092FF0288EE93E0A0E0B0E08093E3
:100B6000010390930203A0930303B093040321E1D4
:100B700032E03093FE022093FD0225EC30E030930A
:100B80000A032093090324EC30E030930C032093F4
:100B90000B0320EC30E030930E0320930D0321EC87
:100BA00030E03093100320930F0322EC30E03093B9
:100BB00012032093110326EC30E0309314032093AA
:100BC0001303109216031092170310921803109239
:100BD000190310929D0310929C0380939E0390939F
:100BE0009F03A093A003B093A10383E292E09093AC
:100BF0009B0380939A031092A9031092A80310926A
:100C0000AB031092AA031092AD031092AC0370E0F4
:100C100060E088EA93E00E9405032091A8033091E8
:100C2000A903811113C02115310519F0C9010E94D2
:100C300095081092A9031092A8031092AD03109288
:100C4000AC031092AB031092AA0308951092AD0367
:100C50001092AC0363E372E0C9010C94E409CF93F2
:100C6000DF93CDB7DEB728970FB6F894DEBF0FBE7F
:100C7000CDBF789484B5826084BD84B5816084BD25
:100C800085B5826085BD85B5816085BD80916E002A
:100C9000816080936E00109281008091810082605B
:100CA0008093810080918100816080938100809198
:100CB00080008160809380008091B1008460809387
:100CC000B1008091B00081608093B00080917A0083
:100CD000846080937A0080917A00826080937A00A9
:100CE00080917A00816080937A0080917A00806898
:100CF00080937A001092C100EDEBF0E02491E9EAD4
:100D0000F0E08491882399F090E0880F991FFC010E
:100D1000EE56FF4FA591B491FC01E857FF4F859126
:100D200094918FB7F894EC91E22BEC938FBF83E012
:100D300090E00E94F9078C01DC0112961C92129738
:100D400089E092E08D939C93E0910D03F0910E0366
:100D500082E08083E0910903F0910A031082E09120
:100D60000B03F0910C038FEC808310921503E0913C
:100D70001103F091120386E08083E0910F03F0915C
:100D80001003808180618083E0910F03F091100354
:100D9000808188608083E0910F03F091100380814F
:100DA00080688083E0910F03F091100380818F7D34
:100DB000808380E197E2A0E0B0E08093010390930C
:100DC0000203A0930303B09304036FE372E08DEF7B
:100DD00092E00E94990261E372E08DEF92E00E943E
:100DE0009902D8011296EC91F0E0EA5FFE4F808103
:100DF000880F8093BA0081E092E09093A7028093DD
:100E0000A60282E092E09093AB028093AA02109235
:100E10008302109282021092850210928402109234
:100E2000CE0281E08093D0021092CF0261E082E195
:100E30000E944D0261E083E10E944D028091B90061
:100E40008E7F8093B9008091B9008D7F8093B90027
:100E500088E48093B80085E48093BC0060E572E08C
:100E60008DEF92E00E94990261E372E08DEF92E0D3
:100E70000E949902109361020093600200E010E06A
:100E80001C821B821E821D8218861F8270E060E019
:100E9000CE0103960E9405032B813C81811146C03F
:100EA0002115310519F0C9010E9495081C821B8289
:100EB00018861F821E821D828091600290916102BD
:100EC000DC01ED91FC910190F081E02DBE016F5F9E
:100ED0007F4F099518161906CCF4898181112EC00F
:100EE0008F8198858530910588F0EB81FC81309762
:100EF00069F02481233751F4059721F061E0858161
:100F0000813309F060E08DE00E944D028B819C816D
:100F10000E9495080115110509F4B2CF0E945301F2
:100F2000882309F4ADCF0E940000AACF18861F8243
:100F300063E372E0C9010E94E409BECF80916002C0
:100F400090916102DC01ED91FC910280F381E02D32
:100F5000BE016F5F7F4F0995D9CF8091A803909113
:100F6000A9030C949508F8940C94F90C91110C9425
:100F7000BF07803219F089508550C8F70895992726
:100F8000882708952F923F924F925F926F927F929F
:100F90008F929F92AF92BF92CF92DF92EF92FF9289
:100FA0000F931F93CF93DF93CDB7DEB7CA1BDB0B35
:100FB0000FB6F894DEBF0FBECDBF09942A883988DA
:100FC00048885F846E847D848C849B84AA84B984E1
:100FD000C884DF80EE80FD800C811B81AA81B981ED
:100FE000CE0FD11D0FB6F894DEBF0FBECDBFED0101
:100FF00008950F931F93CF93DF938230910510F4E0
:1010000082E090E0E091B003F091B10330E020E0A5
:10101000B0E0A0E0309799F42115310509F44AC0F9
:10102000281B390B24303105D8F58A819B81611545
:10103000710589F1FB0193838283FE0111C0408118
:1010400051810281138148175907E0F04817590769
:1010500099F4109761F012960C93129713961C93C3
:101060003296CF01DF91CF911F910F910895009398
:10107000B0031093B103F4CF2115310551F042179D
:10108000530738F0A901DB019A01BD01DF01F80126
:10109000C1CFEF01F9CF9093B1038093B003CDCFCF
:1010A000FE01E20FF31F819391932250310939839E
:1010B0002883D7CF2091AE033091AF03232B41F487
:1010C00020910201309103013093AF032093AE03CE
:1010D00020910001309101012115310541F42DB716
:1010E0003EB74091040150910501241B350BE0915E
:1010F000AE03F091AF03E217F307A0F42E1B3F0BF2
:101100002817390778F0AC014E5F5F4F2417350779
:1011100048F04E0F5F1F5093AF034093AE0381938F
:1011200091939FCFF0E0E0E09CCFCF93DF930097C7
:10113000E9F0FC01329713821282A091B003B091C2
:10114000B103ED0130E020E01097A1F4208131815E
:10115000820F931F2091AE033091AF0328173907F8
:1011600009F061C0F093AF03E093AE03DF91CF913C
:101170000895EA01CE17DF07E8F54A815B819E01F9
:1011800041155105B1F7E901FB83EA834991599172
:10119000C40FD51FEC17FD0761F480819181029681
:1011A000840F951FE90199838883828193819B83B2
:1011B0008A83F0E0E0E012968D919C91139700975E
:1011C000B9F52D913C911197CD010296820F931F95
:1011D0002091AE033091AF032817390739F63097C5
:1011E00051F51092B1031092B003B093AF03A093E6
:1011F000AE03BCCFD383C28340815181840F951F3E
:10120000C817D90761F44E5F5F4F88819981480FF5
:10121000591F518340838A819B8193838283211547
:10122000310509F0B0CFF093B103E093B0039ECF46
:10123000FD01DC01C0CF13821282D7CFB0E0A0E065
:10124000E4E2F9E00C94C4078C01009751F4CB015F
:101250000E94F9078C01C801CDB7DEB7E0E10C941C
:10126000E007FC01E60FF71F9C0122503109E2174D
:10127000F30708F49DC0D901CD91DC911197C617F1
:10128000D70798F0C530D10530F3CE010497861703
:10129000970708F3C61BD70B2297C193D1936D9381
:1012A0007C93CF010E949508D6CF5B01AC1ABD0A92
:1012B0004C018C0E9D1EA091B003B091B103512C36
:1012C000412CF12CE12C109731F58091AE039091D7
:1012D000AF038815990509F05CC04616570608F05B
:1012E00058C08091000190910101009741F48DB7A1
:1012F0009EB74091040150910501841B950BE8179E
:10130000F90708F055C0F093AF03E093AE03F9017D
:1013100071836083A0CF8D919C91119712966C90F0
:10132000129713967C901397A815B90559F56C017F
:1013300042E0C40ED11CCA14DB0420F1AC014A19EE
:101340005B09DA011296159780F0628273825183ED
:101350004083D9016D937C93E114F10471F0D701BE
:101360001396FC93EE93129776CF22968C0F9D1FC7
:10137000F90191838083F301EFCFF093B103E09300
:10138000B00369CF4816590608F42C017D01D3013A
:101390009ACFCB010E94F9077C01009749F0AE017A
:1013A000B8010E94DB09C8010E949508870153CF4C
:1013B00010E000E050CFFB01DC0102C001900D9273
:1013C00041505040D8F70895FB01DC0101900D9287
:1013D0000020E1F70895AEE0B0E0E1EFF9E00C9411
:1013E000D20785E08C838B899C899A838983AE019F
:1013F000495E5F4F6D897E89CE0101960E948F0BF9
:101400002E96E2E00C94EE0720FD09C0FC0123FDBE
:1014100005C022FF02C07383628351834083089515
:1014200044FD17C046FD1DC0DB01FC01AA0FBB1F18
:10143000EE1FFF1F1094D1F76A0F7B1F8E1F9F1F97
:10144000660F771F881F991F620F711D811D911DE7
:10145000089533E0660F771F881F991F3150D1F729
:10146000F3CF34E0F7CF0F931F93CF93DF938C012B
:10147000C8010E949F0CEC0197FD08C00E94B607AE
:10148000892BB1F7B801CE010E94DB0CCE01DF91B0
:10149000CF911F910F9108958F929F92AF92BF921B
:1014A000EF92FF920F931F93CF93DF938C01D62F70
:1014B0007A01B22E0E949F0C9C0133272B323105FA
:1014C00029F02D323105A9F46894B7F8D15061F4B0
:1014D00080E0DF91CF911F910F91FF90EF90BF902F
:1014E000AF909F908F900895C8010E949F0C97FD28
:1014F000EFCFCB2DCD7F2B2D2073F9F48033E9F482
:10150000AA24AA94AD0E89F0C8010E949F0C97FDF1
:101510000CC0282F2F7D283561F4C264D25029F0E9
:10152000C8010E949F0C97FF08C0812C912C540188
:101530001BC0B6FE2BC0C260DA2D812C912C540149
:1015400020ED280F283028F1C4FD09C02A3008F109
:10155000C6FF05C02F7D3FEE320F3630C8F0B80110
:101560000E94DB0CC1FFB4CFC7FF08C0B094A094A9
:1015700090948094811C911CA11CB11C2C2FB5014E
:10158000A401C7010E94040A81E0A3CFC261D4CFA5
:1015900027504C2FC501B4010E94100A4B015C0179
:1015A000C260D15009F3C8010E949F0C97FFC8CFB9
:1015B000D9CFA0E2B0E0EFEDFAE00C94C7075C01F0
:1015C000962E7A01CE0101966C0180E2F60111920D
:1015D0008A95E9F7F501B381890130E020E0712CAB
:1015E000812CA0E041E050E0F801B3FD8591B3FF0C
:1015F0008191982F8F01811107C010E000E0C80190
:10160000A096EDE00C94E3078E3519F42115310511
:1016100041F1A21713064CF48D3549F18D3229F4AE
:10162000811006C0882483941DC0882009F464C0FA
:10163000E92FE695E695E695EC0DFD2DF11D892F38
:101640008770BA0101C0660F8A95EAF78081682B1E
:101650006083791651F0971510F49F5FE9CF915090
:10166000E7CFA1E02F5F3F4FBFCF812CFBCF88207A
:1016700019F08E8180628E83AA2359F0F6019E01B3
:101680002F5D3F4F8081809580833196E217F3076D
:10169000C9F788248394C5010E949F0C97FD16C04A
:1016A000E82FE695E695E695EC0DFD2DF11D2081E0
:1016B00030E0AC014770552702C0359527954A9513
:1016C000E2F720FD06C0B5010E94DB0C882069F01E
:1016D00094CFE114F10429F0F7018083C70101964A
:1016E0007C019A94812C9110D6CFE114F10409F475
:1016F00086CFF701108283CFE82FE695E695E69531
:10170000EC0DFD2DF11D982F9770BA0101C0660FE9
:101710009A95EAF79081692B6083782EA3CFB0E089
:10172000A0E0E5E9FBE00C94C5076C01EB015A0170
:10173000FC0117821682512CF601E380FE01E3FCC6
:101740008591E3FE8191182FEF018823E9F090E065
:101750000E94B607892B21F0C6010E94330AECCF04
:10176000153241F4FE01E3FC1591E3FE1191EF0106
:10177000153269F4C6010E949F0C97FD8EC01817A0
:10178000D9F2B6010E94DB0C852D90E08AC000E002
:101790001A3231F4E3FC1591E3FE1191EF0101E0FF
:1017A000F12C20ED210F2A3048F101FF37C0FF2036
:1017B00059F31836B1F11C3609F43DC0112321F359
:1017C000612F70E088E690E00E94940C892BE1F292
:1017D000912C812C00FD06C0F50180809180C5010F
:1017E00002965C011E3679F5F6014681578170E05C
:1017F00060E0202FC4010E94040A9ECF02606F2D7A
:1018000070E090E080E040E20E94100AF62EFE01B7
:10181000E3FC1591E3FE1191EF01C3CFFF24FA948D
:10182000C8CFFE01E3FC1591E3FE1191EF011836DC
:1018300009F0C4CF08600460FE01E3FC1591E3FEEB
:101840001191EF01BBCF1336C1F401FD02C0FF249B
:10185000F394C6010E949F0C97FD1FC08114910450
:1018600029F0F4018083C40101964C01FA94F1102F
:10187000F0CF00FD61CF53945FCF1B35B9F49E01CB
:10188000A4016F2DC6010E94D90AEC01892B89F7AA
:10189000F6018381807309F477CF8FEF9FEF5110AA
:1018A00073CFCDB7DEB7EFE00C94E107C6010E941D
:1018B000330A97FDF2CF1F36A9F130F4143641F008
:1018C000193639F0006405C01337B9F01537D1F770
:1018D0000062202FA4016F2DC6010E944C0A8111C5
:1018E000C8CFD6CF8114910429F0F4016082C401DD
:1018F00001964C01FA94FF2071F0C6010E949F0CE2
:101900003C0197FD08C00E94B607892B59F3B60128
:10191000C3010E94DB0C8114910409F4AACFF401E5
:101920001082A7CF0061D5CFFC010590061621F0EB
:101930000020D9F7C00108953197CF010895CF93C2
:10194000DF93EC012B8120FF1AC026FF0CC02F7BF8
:101950002B838E819F8101969F838E838A8190E065
:10196000DF91CF91089522FF18C0E881F98180812D
:10197000082E000C990B009729F420622B838FEF1F
:101980009FEFEECF3196F983E8832E813F812F5F61
:101990003F4F3F832E839927E3CFEA85FB85099547
:1019A00097FFF3CF2B81019621F080E2822B8B836E
:1019B000E6CF80E1FBCFFB01238120FF11C026FD94
:1019C0000FC08F3F980771F082832F7D206423839F
:1019D000268137812150310937832683992708953D
:1019E0008FEF9FEF0895EE0FFF1F0590F491E02D0C
:1019F000099410E0C3E6D0E004C0FE010E94F30C9D
:0C1A00002196C436D107C9F7F894FFCF37
:101A0C000000B203200000FF020304FFFFFFFFFFF2
:101A1C00FFFFFFFFFFFFFFFFFFFFFFFFFFFFFFFFCA
:101A2C00FFFFFFFFFFFFFFFFFFFFFFFFFFFFFFFFBA
:101A3C00FFFFFFFFFFFFFFFFFFFFFFFFFFFFFFFFAA
:101A4C00FFFFFFFFFFFFFFFFFFFFFFFFFFFFFFFF9A
:101A5C00FFFFFFFFFFFFFFFFFFFFFFFFFFFFFFFF8A
:101A6C00FFFFFFFFFFFFFFFFFFFFFFFFFFFFFFFF7A
:101A7C00FFFFFFFFFFFFFFFFFFFFFFFFFFFFFFFF6A
:101A8C00FFFFFFFFFFFFFFFFFFFFFFFFFFFFFFFF5A
:101A9C00FFFFFFFFFFFFFFFFFFFFFFFFFFFFFFFF4A
:101AAC00FFFFFFFFFFFFFFFFFFFFFFFFFFFFFFFF3A
:101ABC00FFFFFFFFFFFFFFFFFFFFFFFFFFFFFFFF2A
:101ACC00FFFFFFFFFFFFFFFFFFFFFFFFFFFFFFFF1A
:101ADC00FFFFFFFFFFFFFFFFFFFFFFFFFFFFFFFF0A
:101AEC00FFFFFFFFFFFFFFFFFFFFFFFFFFFFFFFFFA
:101AFC00FFFFFFFFFFFFFFFFFFFFFFFFFFFFFFFFEA
:101B0C00FFFFFFFFFF000000009203A8020000008F
:101B1C0000EC00A3018E003301BF009D00B100005A
:101B2C0000000038022D02490203022602130204AF
:101B3C00020D0A00253268687525326868750055F3
:101B4C0041525420696E697469616C697A656400EC
:101B5C0049324320696E697469616C697A65640005
:00000001FF
