:100000000C9463000C948B000C948B000C948B006C
:100010000C948B000C948B000C948B000C948B0034
:100020000C948B000C948B000C948B000C948B0024
:100030000C948B000C948B000C948B000C948B0014
:100040000C949D070C948B000C946B070C94450743
:100050000C948B000C948B000C948B000C948B00F4
:100060000C9426060C948B006364696E6F70737534
:1000700078585B000000000800020100000304073C
:100080000000000000000000000000002500280023
:100090002B0000000000240027002A0004040404B0
:1000A0000404040402020202020203030303030322
:1000B00001020408102040800102040810200102FF
:1000C00004081020E70711241FBECFEFD8E0DEBFE1
:1000D000CDBF23E0A6E7B2E001C01D92A63EB20765
:1000E000E1F712E0A0E0B1E0E8E8F3E202C0059039
:1000F0000D92A637B107D9F710E0C3E6D0E004C0EF
:100100002197FE010E94BC11C236D107C9F70E9497
:1001100020080C94DB090C94000085ED8093BC0052
:100120008091BC0084FDFCCF1092130308952091B0
:10013000ED02260F3327331F21323105ECF42091D5
:100140001303FC0190E080E0243069F082E0089520
:10015000A091ED022191AC0145535D4FA40FB52F45
:10016000B11D2C930196861798F38091ED02680FCC
:100170006093ED0280E0089581E008950895CF93A3
:10018000DF93AC01E091C702F091C8023097F1F023
:100190009091C6028091C5029817C0F090E0292F77
:1001A00030E02617370754F4D901AB55BD4F240F63
:1001B000351FE90128812C939F5FF1CF1092C60271
:1001C0006093C502CB01DF91CF910994DF91CF916C
:1001D00008950895E091C6028091C502E81730F4B1
:1001E000F0E0EB55FD4F808190E008958FEF9FEF99
:1001F00008959091C6028091C5022FEF3FEF9817A6
:1002000048F4E92FF0E0EB55FD4F208130E09F5F8F
:100210009093C602C90108958091C5029091C602CB
:10022000891B990B0895CF92DF92EF92FF920F9363
:100230001F93CF93DF937C01CB018A012091A4020D
:10024000222389F0EB016B01C40ED51ECC15DD0510
:1002500069F06991D701ED91FC910190F081E02D59
:10026000C7010995F3CF642F0E949700C801DF9161
:10027000CF911F910F91FF90EF90DF90CF90089555
:10028000CF93DF931F92CDB7DEB769832091A4028D
:100290002223F9F02091C902203258F021E030E009
:1002A000FC013383228390E080E00F90DF91CF91B7
:1002B00008958091CA02E82FF0E0EC57FD4F998134
:1002C00090838F5F8093CA028093C90281E090E09F
:1002D000ECCF61E0CE0101960E949700F7CFFC01C0
:1002E000538D448D252F30E0842F90E0821B930B9B
:1002F000541710F0CF96089501970895FC01918D41
:10030000828D981761F0A28DAE0FBF2FB11D5D9643
:100310008C91928D9F5F9F73928F90E008958FEFE5
:100320009FEF0895FC01918D828D981731F0828D99
:10033000E80FF11D858D90E008958FEF9FEF0895F0
:10034000FC01918D228D892F90E0805C9F4F821B54
:1003500091098F7399270895FC01A48DA80FB92FD7
:10036000B11DA35ABF4F2C91848D90E001968F73DD
:100370009927848FA689B7892C93A089B1898C91FC
:1003800080648C93938D848D981306C00288F389C2
:10039000E02D80818F7D80830895EF92FF920F93EF
:1003A0001F93CF93DF93EC01F62E81E0888F9B8D16
:1003B0008C8D981316C0E889F989808185FF11C05A
:1003C000EE89FF896083E889F98980818064808370
:1003D00081E090E0DF91CF911F910F91FF90EF901E
:1003E00008950B8D10E00F5F1F4F0F731127E02E44
:1003F0008C8D8E110CC00FB607FCFACFE889F989F5
:10040000808185FFF5CFCE010E94AC01F1CFEB8D4D
:10041000EC0FFD2FF11DE35AFF4FF0820B8FEA899D
:10042000FB8980818062D3CFCF93DF93EC01888DED
:100430008823B9F0AA89BB89E889F9898C9185FD5F
:1004400003C0808186FD0DC00FB607FCF7CF8C91ED
:1004500085FFF2CF808185FFEDCFCE010E94AC01F8
:10046000E9CFDF91CF91089585E493E00E94A00148
:1004700021E0892B09F420E0822F089580E090E0AC
:10048000892B29F00E94340281110C9400000895F8
:10049000CF93DF93EC012FB7F89480918002909175
:1004A0008102A0918202B09183022FBF8887998731
:1004B000AA87BB87E881F9810284F385E02DCE010C
:1004C000099597FF1EC02FB7F894809180029091F4
:1004D0008102A0918202B09183022FBF4885598585
:1004E0006A857B85841B950BA60BB70B4C815D81C0
:1004F0006E817F8184179507A607B707D8F28FEF23
:100500009FEFDF91CF9108950F931F93CF93DF93C8
:10051000EC01FB014481558160817181E881F981A1
:100520000280F381E02D09958C01E881F981028038
:10053000F381E02D42E050E069E272E0CE010995DE
:10054000800F911FDF91CF911F910F910895AF926E
:10055000BF92CF92DF92EF92FF920F931F93CF93B0
:10056000DF936C017B018B01040F151FEB015E0112
:10057000AE18BF08C017D10759F06991D601ED91A7
:10058000FC910190F081E02DC6010995892B79F746
:10059000C501DF91CF911F910F91FF90EF90DF90F8
:1005A000CF90BF90AF90089590E080E00895BC0197
:1005B0006E5F7F4F20917A02211168C0DC01EC91BF
:1005C000E13021F485E493E00C948402F0E0EA5FEA
:1005D000FE4F808191E09093A40280937902109263
:1005E000CA021092C90289E393E00E948402AC011E
:1005F0003091C902313208F041C08091130381115A
:10060000FCCF9091790282E08093130381E0809384
:1006100015038FEF80931203109237033093360344
:10062000E4E8F2E0A6E1B3E020E0321331C010923A
:10063000380380913803990F982B90933803809159
:100640001403813049F5109214038091380380938C
:10065000BB008091BC0083FDF8CF85EC8093BC008B
:10066000809113038230E1F3809112038F3F31F0C8
:1006700080911203803211F0809112031092CA020D
:100680001092C9021092A402CA01089580E0A2CF7C
:1006900081918D932F5FC9CF85EEE0CF08950895A6
:1006A00090E0FC01EC58FF4F2491FC01E055FF4F16
:1006B0003491FC01E456FF4FE491EE23C9F022236C
:1006C00039F0233001F1A8F4213019F1223029F159
:1006D000F0E0EE0FFF1FE857FF4FA591B4918FB7E1
:1006E000F894EC91611126C030953E233C938FBF66
:1006F00008952730A9F02830C9F0243049F78091B7
:1007000080008F7D03C0809180008F778093800070
:10071000DFCF84B58F7784BDDBCF84B58F7DFBCFF2
:100720008091B0008F778093B000D2CF8091B000DD
:100730008F7DF9CF3E2BDACF0F931F93CF93DF93AB
:100740008C01EB01FC01808191810097E1F06881CF
:10075000798161157105A9F0428153812C813D8118
:100760004217530770F00E940C0C8C819D81F80198
:10077000958384831D821C82DF91CF911F910F91FD
:1007800008950E94BD0A88819981F8019183808330
:100790008A819B81938382838C819D8195838483CD
:1007A000198218821B821A82E5CFCF93DF93EC0166
:1007B00088819981009711F00E94BD0A19821882E0
:1007C0001D821C821B821A82DF91CF910895FC0149
:1007D000808191810C94BD0A0F931F93CF93DF9377
:1007E000EC018B0188819981009759F02A813B8126
:1007F0002617370730F081E0DF91CF911F910F91DD
:100800000895B8016F5F7F4F0E94460B009759F023
:10081000998388831B830A832C813D81232B59F77D
:10082000FC011082E8CF80E0E7CFEF92FF920F93B8
:100830001F93CF93DF93EC01FB01E080F180E11483
:10084000F10411F10481158101151105A9F08C81C4
:100850009D81080F191FB801CE010E94EC03882367
:1008600099F0288139818C819D81B701820F931F76
:100870000E940C0C1D830C83CE01DF91CF911F9140
:100880000F91FF90EF900895CE010E94D503F4CF11
:10089000EF92FF920F931F93CF93DF93EC017B01B5
:1008A0008A01BA010E94EC0381110BC0CE010E94A3
:1008B000D503CE01DF91CF911F910F91FF90EF9063
:1008C00008951D830C83B701888199810E940C0CC7
:1008D000F0CFCF93DF93EC01FB018617970749F028
:1008E000608171816115710541F0448155810E94DB
:1008F0004804CE01DF91CF9108950E94D503F9CF2E
:10090000FC011182108213821282158214820C94CF
:100910006904EF92FF920F931F93CF93DF9300D060
:1009200000D000D0CDB7DEB77C018B01BC01C8017F
:1009300002960E946904B701CE0101960E948004CC
:10094000C80101969F938F931F930F938CE292E0BF
:100950009F938F938A818F9389818F930E94360C06
:100960008C01CE0101960E94E70381E00FB6F89456
:10097000DEBF0FBECDBF023011050CF480E026961D
:100980000FB6F894DEBF0FBECDBFDF91CF911F91A0
:100990000F91FF90EF900895FC0111821082138255
:1009A0001282158214826115710551F0FB010190CC
:1009B0000020E9F73197AF01461B570B0C94480410
:1009C0000895CF92DF92EF92FF920F931F93CF93F0
:1009D000DF9300D0CDB7DEB78C016B016BE272E024
:1009E0000E94CC04C6010E94480297FD21C08A30B3
:1009F0009105F1F089831A82F801E480F580FFEF18
:100A0000EF1AFF0AB701C8010E94EC03882351F3D3
:100A1000F8012081318184819581BE016F5F7F4F14
:100A2000820F931F0E940C0CF801F582E482DACF4A
:100A3000C8010F900F90DF91CF911F910F91FF9000
:100A4000EF90DF90CF900895FF920F931F93CF9375
:100A5000DF93CDB7DEB76F970FB6F894DEBF0FBE4A
:100A6000CDBFBC01CE0145960E94800410917A0250
:100A70006BE272E0CE0103960E94CC0485E0E0E4D4
:100A8000F2E0DE015B9601900D928A95E1F71F92EC
:100A90001F931F92FF24F394FF9287E392E09F93AA
:100AA0008F938E01055E1F4F1F930F930E94130CAF
:100AB00080917A028A83F982B801CE0109960E9458
:100AC000CC04BE01675F7F4FCE010F960E94800469
:100AD000BE016B5E7F4FCE010F960E941504BC01D4
:100AE000CE0103960E946904CE010F960E94E7038F
:100AF000CE0109960E94E703CE0145960E94E703C6
:100B0000CE0101960E94D7028C01CE0103960E946D
:100B1000E7030FB6F894DEBF0FBECDBFC8016F96D6
:100B20000FB6F894DEBF0FBECDBFDF91CF911F91FE
:100B30000F91FF9008950F931F93CF93DF93CDB73D
:100B4000DEB768970FB6F894DEBF0FBECDBF8B013E
:100B5000DB0114968D919C911597009721F0ED91F2
:100B6000FC91309721F410927602E6E7F2E02081C2
:100B7000233709F05BC0029730F0D801ED91FC916A
:100B8000309709F05FC010927602E6E7F2E061E08C
:100B90008081813309F060E08DE00E945003F8010C
:100BA00084819581029730F00190F081E02D30979B
:100BB00009F04AC010927602E6E7F2E0808168E42C
:100BC00072E0813311F465E472E0CE010D960E946B
:100BD000CC046CE472E0CE0101960E94CC04BE010C
:100BE0006F5F7F4FCE0107960E948004BE01635F56
:100BF0007F4FCE0107960E941504BC01CE0143969B
:100C00000E948004CE0143960E942405CE014396A3
:100C10000E94E703CE0107960E94E703CE010196EA
:100C20000E94E703CE010D960E94E70381E06896DB
:100C30000FB6F894DEBF0FBECDBFDF91CF911F91ED
:100C40000F9108953196A3CF3196B8CF1F920F928E
:100C50000FB60F9211242F933F934F935F936F938F
:100C60007F938F939F93AF93BF93EF93FF93809165
:100C7000B900887F803609F44AC0F0F5883209F45B
:100C8000A7C018F5803109F49BC0B8F4882309F493
:100C9000F9C0883009F494C0FF91EF91BF91AF91F2
:100CA0009F918F917F916F915F914F913F912F9184
:100CB0000F900FBE0F901F901895883109F488C0CF
:100CC000803251F78093120314C0803409F49DC020
:100CD00040F48033B9F38833F9F68093120385EC3E
:100CE000B0C0803509F485C0883509F496C08834D1
:100CF00099F60E948D00D0CF883909F48CC038F560
:100D0000883729F050F4883611F0803729F683E0CF
:100D1000809313031092110357C0883809F47BC0E5
:100D2000803919F0803809F0B7CF809111038032F3
:100D300008F071C0E091110381E08E0F80931103E0
:100D40008091BB00F0E0EF50FD4F80833DC0803BC1
:100D500039F0E0F4803A09F479C0883A09F09CCF80
:100D600084E0809313031092EE021092ED02E09162
:100D7000EB02F091EC0209958091ED0281110FC018
:100D800081E08093ED021092CB0209C0803C09F40F
:100D9000A6CF883C09F4A3CF883B09F07DCFE09132
:100DA000EE0281E08E0F8093EE02F0E0E553FD4FFE
:100DB00080818093BB009091EE028091ED0229C06A
:100DC000809138038093BB0085EC8093BC0064CF96
:100DD0009091370380913603981758F5E0913703C7
:100DE00081E08E0F80933703F0E0EA5EFC4F808154
:100DF000E9CFE091370381E08E0F80933703809134
:100E0000BB00F0E0EA5EFC4F808390913703809155
:100E100036039817C8F285E8D8CFE091370381E010
:100E20008E0F809337038091BB00F0E0EA5EFC4FA9
:100E300080838091150381115CCF81E0809314033E
:100E400084EA8093BC001092130326CF85EC809334
:100E5000BC001092130380911103803230F4E091B2
:100E60001103F0E0EF50FD4F10826091110370E02C
:100E7000E091EF02F091F00281EF92E0099510927B
:100E800011030ACF1092120334CF1F920F920FB6A4
:100E90000F9211242F933F934F935F936F937F9300
:100EA0008F939F93AF93BF93EF93FF9385E493E06A
:100EB0000E94AC01FF91EF91BF91AF919F918F91F3
:100EC0007F916F915F914F913F912F910F900FBE46
:100ED0000F901F9018951F920F920FB60F9211242A
:100EE0002F938F939F93EF93FF93E0915503F0918E
:100EF00056038081E0915B03F0915C0382FD1BC08F
:100F0000908180915E038F5F8F7320915F038217C2
:100F100041F0E0915E03F0E0EB5BFC4F958F809336
:100F20005E03FF91EF919F918F912F910F900FBED4
:100F30000F901F9018958081F4CF1F920F920FB6DB
:100F40000F9211242F933F938F939F93AF93BF934F
:100F50008091800290918102A0918202B0918302DF
:100F600030917F0223E0230F2D3758F50196A11D04
:100F7000B11D20937F028093800290938102A09301
:100F80008202B093830280917B0290917C02A091B7
:100F90007D02B0917E020196A11DB11D80937B025E
:100FA00090937C02A0937D02B0937E02BF91AF919B
:100FB0009F918F913F912F910F900FBE0F901F9097
:100FC000189526E8230F0296A11DB11DD2CFE9E3A3
:100FD000F3E01382128288EE93E0A0E0B0E0848315
:100FE0009583A683B78329E032E031832083E5E44B
:100FF000F3E01382128284839583A683B7838BE107
:1010000092E09183808385EC90E09587848784ECDF
:1010100090E09787868780EC90E0918B808B81ECC5
:1010200090E0938B828B82EC90E0958B848B86ECA6
:1010300090E0978B868B118E128E138E148E0895EE
:10104000CF93DF93CDB7DEB764970FB6F894DEBFCA
:101050000FBECDBF789484B5826084BD84B58160B5
:1010600084BD85B5826085BD85B5816085BD809173
:101070006E00816080936E001092810080918100EB
:1010800082608093810080918100816080938100E3
:10109000809180008160809380008091B1008460A5
:1010A0008093B1008091B00081608093B000809106
:1010B0007A00846080937A0080917A0082608093C5
:1010C0007A0080917A00816080937A0080917A0022
:1010D000806880937A001092C100EDEBF0E02491DB
:1010E000E9EAF0E08491882399F090E0880F991F55
:1010F000FC01EE56FF4FA591B491FC01E857FF4F5C
:10110000859194918FB7F894EC91E22BEC938FBF7B
:1011100010927A028BE995E090937802809377029F
:10112000E0915503F091560382E08083E0915103F2
:10113000F09152031082E0915303F09154038FEC2D
:10114000808310925D03E0915903F0915A0386E089
:101150008083E0915703F091580380818061808300
:10116000E0915703F0915803808188608083E0917B
:101170005703F0915803808180688083E091570382
:10118000F091580380818F7D808328EEC22E23E06A
:10119000D22EE12CF12CC0924903D0924A03E09266
:1011A0004B03F0924C031092BA008EEB90E09093B8
:1011B000EC028093EB028FEB90E09093F00280932F
:1011C000EF021092C6021092C5021092CA0210924B
:1011D000C9021092130381E0809315031092140347
:1011E00061E082E10E94500361E083E10E945003CC
:1011F0008091B9008E7F8093B9008091B9008D7F76
:101200008093B90088E48093B80085E48093BC00A3
:10121000C0923D03D0923E03E0923F03F092400320
:101220008EE493E09093C8028093C7026BE572E06E
:10123000CE0101960E94CC04CE0101960E942405A5
:10124000CE0101960E94E70330E0E32E30E0F32E5A
:101250006BE272E0CE0103960E94CC0485E493E039
:101260000E94A00165E473E0181619065CF08091F5
:10127000C5029091C602891B990B1816190634F500
:1012800069E373E0CE0109960E94E104BE01675F45
:101290007F4FCE0103960E949C03CE0109960E94C7
:1012A000E703BE016D5F7F4FCE0109960E94800467
:1012B000BE016F5F7F4FCE0109960E948904182FEF
:1012C000CE0109960E94E70311116AC0CE01039670
:1012D0000E94E703E114F10409F4BACF0E9434023A
:1012E000882309F4B5CF0E940000B2CFC0907702E6
:1012F000D0907802BE016D5F7F4FCE010F960E94A5
:101300008004AB88BC8884E0882E912C84E0A816E9
:10131000B10420F4450194E0A92EB12C6BE272E0F7
:10132000CE0109960E94CC040B891C898016910677
:1013300018F5A016B10608F48501EF85F889E00FCD
:10134000F11FB08010826F857889680D791D611555
:10135000710509F1FB0101900020E9F73197AF0118
:10136000461B570BCE0109960E9448048F85988929
:10137000080F191FF801B082BE01675F7F4F8A8195
:10138000F6010995CE0109960E94E703CE010F965A
:101390000E94E7039BCFCE0109960E94D503E6CFBA
:1013A000998180917A02981709F4A0CFCE01019615
:1013B0000E94D7028BCFF8940C94C21191110C9417
:1013C000E709803219F089508550C8F708959927A8
:1013D000882708952F923F924F925F926F927F924B
:1013E0008F929F92AF92BF92CF92DF92EF92FF9235
:1013F0000F931F93CF93DF93CDB7DEB7CA1BDB0BE1
:101400000FB6F894DEBF0FBECDBF09942A88398885
:1014100048885F846E847D848C849B84AA84B9848C
:10142000C884DF80EE80FD800C811B81AA81B98198
:10143000CE0FD11D0FB6F894DEBF0FBECDBFED01AC
:1014400008950F931F93CF93DF938230910510F48B
:1014500082E090E0E091E403F091E50330E020E0E9
:10146000B0E0A0E0309799F42115310509F44AC0A5
:10147000281B390B24303105D8F58A819B816115F1
:10148000710589F1FB0193838283FE0111C04081C4
:1014900051810281138148175907E0F04817590715
:1014A00099F4109761F012960C93129713961C936F
:1014B0003296CF01DF91CF911F910F910895009344
:1014C000E4031093E503F4CF2115310551F04217E1
:1014D000530738F0A901DB019A01BD01DF01F801D2
:1014E000C1CFEF01F9CF9093E5038093E403CDCF13
:1014F000FE01E20FF31F819391932250310939834A
:101500002883D7CF2091E2033091E303232B41F4CA
:1015100020910201309103013093E3032093E20311
:1015200020910001309101012115310541F42DB7C1
:101530003EB74091040150910501241B350BE09109
:10154000E203F091E303E217F307A0F42E1B3F0B35
:101550002817390778F0AC014E5F5F4F2417350725
:1015600048F04E0F5F1F5093E3034093E2038193D3
:1015700091939FCFF0E0E0E09CCFCF93DF93009773
:10158000E9F0FC01329713821282A091E403B0913A
:10159000E503ED0130E020E01097A1F420813181D6
:1015A000820F931F2091E2033091E303281739073C
:1015B00009F061C0F093E303E093E203DF91CF9180
:1015C0000895EA01CE17DF07E8F54A815B819E01A5
:1015D00041155105B1F7E901FB83EA83499159911E
:1015E000C40FD51FEC17FD0761F48081918102962D
:1015F000840F951FE90199838883828193819B835E
:101600008A83F0E0E0E012968D919C911397009709
:10161000B9F52D913C911197CD010296820F931F40
:101620002091E2033091E3032817390739F6309708
:1016300051F51092E5031092E403B093E303A093F5
:10164000E203BCCFD383C28340815181840F951FB5
:10165000C817D90761F44E5F5F4F88819981480FA1
:10166000591F518340838A819B81938382832115F3
:10167000310509F0B0CFF093E503E093E4039ECF8A
:10168000FD01DC01C0CF13821282D7CFB0E0A0E011
:10169000ECE4FBE00C94EC098C01009751F4CB01D5
:1016A0000E94210A8C01C801CDB7DEB7E0E10C949D
:1016B000080AFC01E60FF71F9C0122503109E217CE
:1016C000F30708F49DC0D901CD91DC911197C6179D
:1016D000D70798F0C530D10530F3CE0104978617AF
:1016E000970708F3C61BD70B2297C193D1936D932D
:1016F0007C93CF010E94BD0AD6CF5B01AC1ABD0A14
:101700004C018C0E9D1EA091E403B091E503512C79
:10171000412CF12CE12C109731F58091E20390914E
:10172000E3038815990509F05CC04616570608F0D2
:1017300058C08091000190910101009741F48DB74C
:101740009EB74091040150910501841B950BE81749
:10175000F90708F055C0F093E303E093E203F901C1
:1017600071836083A0CF8D919C91119712966C909C
:10177000129713967C901397A815B90559F56C012B
:1017800042E0C40ED11CCA14DB0420F1AC014A199A
:101790005B09DA011296159780F062827382518399
:1017A0004083D9016D937C93E114F10471F0D7016A
:1017B0001396FC93EE93129776CF22968C0F9D1F73
:1017C000F90191838083F301EFCFF093E503E09378
:1017D000E40369CF4816590608F42C017D01D301B2
:1017E0009ACFCB010E94210A7C01009749F0AE01FB
:1017F000B8010E94030CC8010E94BD0A870153CFA3
:1018000010E000E050CFFB01DC0102C001900D921E
:1018100041505040D8F70895FB01DC0101900D9232
:101820000020E1F70895AEE0B0E0E9E1FCE00C94BF
:10183000F8090D891E8986E08C831A8309838FEF4E
:101840009FE79E838D83AE01475E5F4F6F89788DE2
:10185000CE0101960E944F0C2F813885020F131F75
:10186000F80110822E96E4E00C94140AAEE0B0E089
:10187000ECE3FCE00C94FA0985E08C838B899C896D
:101880009A838983AE01495E5F4F6D897E89CE015F
:1018900001960E94B40F2E96E2E00C94160AABE07B
:1018A000B0E0E5E5FCE00C94EA097C013B018A012B
:1018B000FC0117821682838181FFC8C1CE01019687
:1018C0005C01F7019381F30193FD859193FF819171
:1018D0003F01882309F453C1853239F493FD859182
:1018E00093FF81913F01853229F4B70190E00E9476
:1018F0001611E7CF912C212C312CFFE1F31538F094
:101900008B3211F190F4803209F1833229F137FCE6
:101910003CC020ED280F2A3050F536FE20C08AE06A
:10192000989E200D1124922E06C08D3291F08033A6
:1019300071F7689430F8F30193FD859193FF8191DD
:101940003F018111DACF21C0689431F8689432F8F0
:10195000F2CF689433F8EFCF689434F8ECCFEAE034
:101960002E9E200D1124222E689435F8E4CF8E325D
:1019700029F436FC04C1689436F8DDCF8C3619F4AE
:10198000689437F8D8CF8836B1F2982F9F7D955458
:101990009330E0F08336A1F18337C1F1833509F04C
:1019A00063C02801F2E04F0E511CF801C080D180C5
:1019B000692D70E036FC02C06FEF7FEFC6010E9418
:1019C000C4104C01689437F882010AC00C5F1F4FA5
:1019D000FFE3F98388248394912C6501E89437F818
:1019E00033FE2DC0522C8114910471F5552009F459
:1019F00068CFB70180E290E00E9416115A94F6CFAA
:101A0000F801808189830E5F1F4FE4CF2801F2E047
:101A10004F0E511CF801C080D180692D70E036FC5A
:101A200002C06FEF7FEFC6010E94CF104C01820110
:101A3000D5CFB70180E290E00E9416112A942814B5
:101A4000190409F0B0F7CECFF60137FC859137FEC7
:101A500081916F01B70190E00E94161151105A94C4
:101A6000F1E08F1A9108BFCF843619F0893609F05A
:101A700077C0F80137FE6BC06081718182819381EC
:101A80000C5F1F4FF32DFF763F2E97FF09C09095F7
:101A90008095709561957F4F8F4F9F4F689437F871
:101AA0002AE030E0A5010E945E11C82ECA188C2CD5
:101AB000432C36FE0CC0E89440F8C91440F434FEC0
:101AC00005C032FC03C0F32DFE7E4F2E892C44FE50
:101AD00095C0FE01EC0DF11D8081803309F087C0B7
:101AE000242D297E422E842D8870582E43FC95C0CB
:101AF00040FE8FC09C2C821418F42C0C922C981849
:101B000044FE91C0B70180E390E00E94161142FEAE
:101B100009C088E790E041FE02C088E590E0B70187
:101B20000E941611C91408F48AC0CA94D12C9FEFE0
:101B3000C91AD90ACA0CDB1CF60182916F01B701E0
:101B400090E00E941611AC14BD04B1F74FCF608134
:101B50007181072E000C880B990B0E5F1F4F92CFDF
:101B6000D32CE894D4F82AE030E0853739F1232DDE
:101B7000297FD22E8F3601F148F48835A9F0F7017C
:101B8000868197812B96E2E10C94060A803749F012
:101B90008837A9F7D4FE02C06894D2F820E130E07B
:101BA0000DC06894D4F8F6CF34FE03C0822F86604F
:101BB000D82E20E132E002C028E030E0F801D7FE64
:101BC0000FC060817181828193810C5F1F4FA501DD
:101BD0000E945E11C82ECA183D2CE89437F867CFD2
:101BE0006081718190E080E00E5F1F4FF0CF42FC7A
:101BF00002C0839478CF8394839475CF842D8678A4
:101C000009F471CFF6CFB70180E290E00E9416117F
:101C100083948214C0F3512C73CF522C5818821421
:101C200008F46ECFF8CF842D867809F47BCF8BE251
:101C300041FE80E247FC8DE2B70190E071CFB70131
:101C400080E390E00E9416119A946CCF8FEF9FEF83
:101C500099CF20FD09C0FC0123FD05C022FF02C071
:101C60007383628351834083089544FD17C046FD0A
:101C70001DC0DB01FC01AA0FBB1FEE1FFF1F10944C
:101C8000D1F76A0F7B1F8E1F9F1F660F771F881F5C
:101C9000991F620F711D811D911D089533E0660F1C
:101CA000771F881F991F3150D1F7F3CF34E0F7CF5A
:101CB0000F931F93CF93DF938C01C8010E94DA101A
:101CC000EC0197FD08C00E94DE09892BB1F7B8012D
:101CD000CE010E944611CE01DF91CF911F910F914D
:101CE00008958F929F92AF92BF92EF92FF920F93BF
:101CF0001F93CF93DF938C01D62F7A01B22E0E94CF
:101D0000DA109C0133272B32310529F02D323105B1
:101D1000A9F46894B7F8D15061F480E0DF91CF91D5
:101D20001F910F91FF90EF90BF90AF909F908F9079
:101D30000895C8010E94DA1097FDEFCFCB2DCD7F1B
:101D40002B2D2073F9F48033E9F4AA24AA94AD0E64
:101D500089F0C8010E94DA1097FD0CC0282F2F7D52
:101D6000283561F4C264D25029F0C8010E94DA100B
:101D700097FF08C0812C912C54011BC0B6FE2BC0CC
:101D8000C260DA2D812C912C540120ED280F2830CF
:101D900028F1C4FD09C02A3008F1C6FF05C02F7D17
:101DA0003FEE320F3630C8F0B8010E944611C1FF35
:101DB000B4CFC7FF08C0B094A09490948094811CC5
:101DC000911CA11CB11C2C2FB501A401C7010E94BC
:101DD000290E81E0A3CFC261D4CF27504C2FC5017B
:101DE000B4010E94350E4B015C01C260D15009F371
:101DF000C8010E94DA1097FFC8CFD9CFA0E2B0E0A7
:101E0000E4E0FFE00C94EF095C01962E7A01CE012C
:101E100001966C0180E2F60111928A95E9F7F501CD
:101E2000B381890130E020E0712C812CA0E041E0F9
:101E300050E0F801B3FD8591B3FF8191982F8F0198
:101E4000811107C010E000E0C801A096EDE00C94FD
:101E50000B0A8E3519F42115310541F1A21713062D
:101E60004CF48D3549F18D3229F4811006C0882457
:101E700083941DC0882009F464C0E92FE695E69597
:101E8000E695EC0DFD2DF11D892F8770BA0101C07B
:101E9000660F8A95EAF78081682B6083791651F086
:101EA000971510F49F5FE9CF9150E7CFA1E02F5F26
:101EB0003F4FBFCF812CFBCF882019F08E818062ED
:101EC0008E83AA2359F0F6019E012F5D3F4F80813A
:101ED000809580833196E217F307C9F788248394AD
:101EE000C5010E94DA1097FD16C0E82FE695E69529
:101EF000E695EC0DFD2DF11D208130E0AC01477021
:101F0000552702C0359527954A95E2F720FD06C072
:101F1000B5010E944611882069F094CFE114F104C4
:101F200029F0F7018083C70101967C019A94812CE6
:101F30009110D6CFE114F10409F486CFF701108295
:101F400083CFE82FE695E695E695EC0DFD2DF11D86
:101F5000982F9770BA0101C0660F9A95EAF79081A1
:101F6000692B6083782EA3CFB0E0A0E0EAEBFFE01E
:101F70000C94ED096C01EB015A01FC0117821682E9
:101F8000512CF601E380FE01E3FC8591E3FE819193
:101F9000182FEF018823E9F090E00E94DE09892BD9
:101FA00021F0C6010E94580EECCF153241F4FE011B
:101FB000E3FC1591E3FE1191EF01153269F4C601BE
:101FC0000E94DA1097FD8EC01817D9F2B6010E9450
:101FD0004611852D90E08AC000E01A3231F4E3FC0E
:101FE0001591E3FE1191EF0101E0F12C20ED210F9D
:101FF0002A3048F101FF37C0FF2059F31836B1F1FC
:102000001C3609F43DC0112321F3612F70E088E6EE
:1020100090E00E94B910892BE1F2912C812C00FDF7
:1020200006C0F50180809180C50102965C011E36D4
:1020300079F5F6014681578170E060E0202FC401F8
:102040000E94290E9ECF02606F2D70E090E080E02C
:1020500040E20E94350EF62EFE01E3FC1591E3FEF0
:102060001191EF01C3CFFF24FA94C8CFFE01E3FC26
:102070001591E3FE1191EF01183609F0C4CF086005
:102080000460FE01E3FC1591E3FE1191EF01BBCF6B
:102090001336C1F401FD02C0FF24F394C6010E946F
:1020A000DA1097FD1FC08114910429F0F401808398
:1020B000C40101964C01FA94F110F0CF00FD61CFFC
:1020C00053945FCF1B35B9F49E01A4016F2DC60157
:1020D0000E94FE0EEC01892B89F7F6018381807343
:1020E00009F477CF8FEF9FEF511073CFCDB7DEB7E5
:1020F000EFE00C94090AC6010E94580E97FDF2CF3A
:102100001F36A9F130F4143641F0193639F0006465
:1021100005C01337B9F01537D1F70062202FA4019D
:102120006F2DC6010E94710E8111C8CFD6CF8114C8
:10213000910429F0F4016082C40101964C01FA94E3
:10214000FF2071F0C6010E94DA103C0197FD08C023
:102150000E94DE09892B59F3B601C3010E94461182
:102160008114910409F4AACFF4011082A7CF006171
:10217000D5CFFC010590061621F00020D9F7C0014B
:1021800008953197CF010895FC010590615070408A
:102190000110D8F7809590958E0F9F1F0895FC0130
:1021A0006150704001900110D8F7809590958E0F86
:1021B0009F1F0895CF93DF93EC012B8120FF1AC05E
:1021C00026FF0CC02F7B2B838E819F8101969F83DE
:1021D0008E838A8190E0DF91CF91089522FF18C00D
:1021E000E881F9818081082E000C990B009729F471
:1021F00020622B838FEF9FEFEECF3196F983E88338
:102200002E813F812F5F3F4F3F832E839927E3CF5E
:10221000EA85FB85099597FFF3CF2B81019621F085
:1022200080E2822B8B83E6CF80E1FBCF0F931F935D
:10223000CF93DF93182F092FEB018B8181FD09C00C
:102240001FEF0FEF812F902FDF91CF911F910F91F3
:10225000089582FF14C02E813F818C819D812817B3
:1022600039073CF4E881F981CF010196998388838D
:1022700010838E819F8101969F838E83E3CFE885B3
:10228000F985812F0995892BA1F3DACFFB012381F1
:1022900020FF11C026FD0FC08F3F980771F0828389
:1022A0002F7D206423832681378121503109378394
:1022B0002683992708958FEF9FEF0895FA01AA27A3
:1022C000283051F1203181F1E8946F936E7F6E5F79
:1022D0007F4F8F4F9F4FAF4FB1E03ED0B4E03CD027
:1022E000670F781F891F9A1FA11D680F791F8A1F0A
:1022F000911DA11D6A0F711D811D911DA11D20D071
:1023000009F468943F912AE0269F11243019305D2A
:102310003193DEF6CF010895462F4770405D41931B
:10232000B3E00FD0C9F7F6CF462F4F70405D4A3368
:1023300018F0495D31FD4052419302D0A9F7EACF30
:10234000B4E0A6959795879577956795BA95C9F75F
:1023500000976105710508959B01AC010A2E069452
:102360005795479537952795BA95C9F7620F731F0B
:10237000841F951FA01D0895EE0FFF1F0590F49177
:08238000E02D0994F894FFCF51
:102388000000E603200000FF020304FFFFFFFFFF39
:10239800FFFFFFFFFFFFFFFFFFFFFFFFFFFFFFFF45
:1023A800FFFFFFFFFFFFFFFFFFFFFFFFFFFFFFFF35
:1023B800FFFFFFFFFFFFFFFFFFFFFFFFFFFFFFFF25
:1023C800FFFFFFFFFFFFFFFFFFFFFFFFFFFFFFFF15
:1023D800FFFFFFFFFFFFFFFFFFFFFFFFFFFFFFFF05
:1023E800FFFFFFFFFFFFFFFFFFFFFFFFFFFFFFFFF5
:1023F800FFFFFFFFFFFFFFFFFFFFFFFFFFFFFFFFE5
:10240800FFFFFFFFFFFFFFFFFFFFFFFFFFFFFFFFD4
:10241800FFFFFFFFFFFFFFFFFFFFFFFFFFFFFFFFC4
:10242800FFFFFFFFFFFFFFFFFFFFFFFFFFFFFFFFB4
:10243800FFFFFFFFFFFFFFFFFFFFFFFFFFFFFFFFA4
:10244800FFFFFFFFFFFFFFFFFFFFFFFFFFFFFFFF94
:10245800FFFFFFFFFFFFFFFFFFFFFFFFFFFFFFFF84
:10246800FFFFFFFFFFFFFFFFFFFFFFFFFFFFFFFF74
:10247800FFFFFFFFFFFFFFFFFFFFFFFFFFFFFFFF64
:10248800FFFFFFFFFF0000000040011301D402E935
:10249800000C01F900EA0000000000CD01A7026F5E
:1024A800011402A0017E0192010D0A00253268681C
:1024B8007525326868750025303278253032780005
:1024C80020202020004F4E004F464600536574746C
:1024D800696E67206C696768742000436F6D6D755D
:1024E8006E69636174696F6E20696E697469616C85
:0624F800697A6564000032
:00000001FF
