:100000000C945D000C9485000C9485000C94850084
:100010000C9485000C9485000C9485000C9485004C
:100020000C9485000C9485000C9485000C9485003C
:100030000C9485000C9485000C9485000C9485002C
:100040000C94A5040C9485000C9473040C944D043A
:100050000C9485000C9485000C9485000C9485000C
:100060000C942E030C94850000000000240027004F
:100070002A0000000000250028002B0004040404CE
:100080000404040402020202020203030303030342
:10009000010204081020408001020408102001021F
:1000A00004081020000000080002010000030407FB
:1000B0000000000000000000EF0411241FBECFEF7D
:1000C000D8E0DEBFCDBF22E0A6E2B1E001C01D92C4
:1000D000AF36B207E1F711E0A0E0B1E0E0EBFCE001
:1000E00002C005900D92A632B107D9F710E0CDE518
:1000F000D0E004C02197FE010E945006CC35D10704
:10010000C9F70E9428050C944D060C94000085ED5B
:100110008093BC008091BC0084FDFCCF10929D01B7
:10012000089520917701260F3327331F213231059F
:10013000ECF420919D01FC0190E080E0243069F016
:1001400082E00895A09177012191AC014B5A5E4F56
:10015000A40FB52FB11D2C930196861798F38091AB
:100160007701680F6093770180E0089581E008953A
:100170000895CF93DF93AC01E0915101F0915201CA
:100180003097F1F09091500180914F019817C0F095
:1001900090E0292F30E02617370754F4D901A15DEC
:1001A000BE4F240F351FE90128812C939F5FF1CFAB
:1001B0001092500160934F01CB01DF91CF910994D0
:1001C000DF91CF9108950895E091500180914F0102
:1001D000E81730F4F0E0E15DFE4F808190E0089593
:1001E0008FEF9FEF08959091500180914F012FEF75
:1001F0003FEF981748F4E92FF0E0E15DFE4F2081D2
:1002000030E09F5F90935001C901089580914F01A4
:1002100090915001891B990B0895CF93DF93CB01E7
:10022000EA01642F0E949100CE01DF91CF910895E1
:10023000CF93DF931F92CDB7DEB7698361E0CE0124
:1002400001960E94910081E090E00F90DF91CF91A4
:100250000895FC01538D448D252F30E0842F90E0CC
:10026000821B930B541710F0CF96089501970895B1
:10027000FC01918D828D981761F0A28DAE0FBF2F7A
:10028000B11D5D968C91928D9F5F9F73928F90E0D0
:1002900008958FEF9FEF0895FC01918D828D98173F
:1002A00031F0828DE80FF11D858D90E008958FEF7C
:1002B0009FEF0895FC01918D228D892F90E0805C45
:1002C0009F4F821B91098F7399270895FC01A48D7C
:1002D000A80FB92FB11DA35ABF4F2C91848D90E068
:1002E00001968F739927848FA689B7892C93A0894B
:1002F000B1898C9180648C93938D848D981306C002
:100300000288F389E02D80818F7D80830895EF92AC
:10031000FF920F931F93CF93DF93EC01F62E81E0B2
:10032000888F9B8D8C8D981316C0E889F989808100
:1003300085FF11C0EE89FF896083E889F989808192
:100340008064808381E090E0DF91CF911F910F91D5
:10035000FF90EF9008950B8D10E00F5F1F4F0F730C
:100360001127E02E8C8D8E110CC00FB607FCFACF32
:10037000E889F989808185FFF5CFCE010E94660169
:10038000F1CFEB8DEC0FFD2FF11DE35AFF4FF08203
:100390000B8FEA89FB8980818062D3CFCF93DF9373
:1003A000EC01888D8823B9F0AA89BB89E889F9898D
:1003B0008C9185FD03C0808186FD0DC00FB607FCC2
:1003C000F7CF8C9185FFF2CF808185FFEDCFCE01F5
:1003D0000E946601E9CFDF91CF91089582ED91E00F
:1003E0000E945A0121E0892B09F420E0822F089510
:1003F00080E090E0892B29F00E94EE0181110C949D
:1004000000000895AF92BF92CF92DF92EF92FF92D9
:100410000F931F93CF93DF936C017B018B01040F2C
:10042000151FEB015E01AE18BF08C017D10759F0C8
:100430006991D601ED91FC910190F081E02DC6010A
:100440000995892B79F7C501DF91CF911F910F9104
:10045000FF90EF90DF90CF90BF90AF90089590E025
:10046000FC01EC55FF4F2491FC01E057FF4F349104
:10047000FC01E458FF4FE491EE23C9F0222339F048
:10048000233001F1A8F4213019F1223029F1F0E0F4
:10049000EE0FFF1FEE58FF4FA591B4918FB7F89460
:1004A000EC91611126C030953E233C938FBF089597
:1004B0002730A9F02830C9F0243049F78091800016
:1004C0008F7D03C0809180008F7780938000DFCF85
:1004D00084B58F7784BDDBCF84B58F7DFBCF8091D2
:1004E000B0008F778093B000D2CF8091B0008F7D25
:1004F000F9CF3E2BDACF90E080E00895FC01208117
:1005000030E0C90101964F9718F0108280E00895FD
:100510002E0F3F1FD9016C9380818F5F808381E014
:100520000895089581E008953FB7F89480912B01D4
:1005300090912C01A0912D01B0912E0126B5A89B80
:1005400005C02F3F19F00196A11DB11D3FBFBA2F65
:10055000A92F982F8827BC01CD01620F711D811D25
:10056000911D42E0660F771F881F991F4A95D1F7AA
:1005700008958F929F92AF92BF92CF92DF92EF92A7
:10058000FF924B015C010E9494026B017C010E946E
:1005900094026C197D098E099F09683E734081059C
:1005A0009105A8F321E0821A9108A108B10888EE0C
:1005B000C80E83E0D81EE11CF11C81149104A10433
:1005C000B10429F7FF90EF90DF90CF90BF90AF90EC
:1005D0009F908F900895EF92FF920F931F93CF9368
:1005E000DF93CDB7DEB7A2970FB6F894DEBF0FBE8C
:1005F000CDBF8091C4019091C5019B838A8384E023
:10060000898387E08C8368E282ED91E00E94870114
:100610008C01498150E0BE016F5F7F4F82ED91E018
:100620000E940202080F191F69E282ED91E00E9408
:1006300087017C0182ED91E00E94CE01C8018E0D00
:100640009F1DA2960FB6F894DEBF0FBECDBFDF91FF
:10065000CF911F910F91FF90EF9008951F920F92ED
:100660000FB60F9211242F933F934F935F936F9385
:100670007F938F939F93AF93BF93EF93FF9380915B
:10068000B900887F803609F44AC0F0F5883209F451
:10069000A7C018F5803109F49BC0B8F4882309F489
:1006A000F9C0883009F494C0FF91EF91BF91AF91E8
:1006B0009F918F917F916F915F914F913F912F917A
:1006C0000F900FBE0F901F901895883109F488C0C5
:1006D000803251F780939C0114C0803409F49DC08E
:1006E00040F48033B9F38833F9F680939C0185ECAC
:1006F000B0C0803509F485C0883509F496C08834C7
:1007000099F60E948700D0CF883909F48CC038F55B
:10071000883729F050F4883611F0803729F683E0C5
:1007200080939D0110929B0157C0883809F47BC0CB
:10073000803919F0803809F0B7CF80919B01803261
:1007400008F071C0E0919B0181E08E0F80939B01C6
:100750008091BB00F0E0E558FE4F80833DC0803BB8
:1007600039F0E0F4803A09F479C0883A09F09CCF76
:1007700084E080939D011092780110927701E091BE
:100780007501F091760109958091770181110FC073
:1007900081E0809377011092550109C0803C09F4F3
:1007A000A6CF883C09F4A3CF883B09F07DCFE09128
:1007B000780181E08E0F80937801F0E0EB5AFE4FD4
:1007C00080818093BB00909178018091770129C04E
:1007D0008091C2018093BB0085EC8093BC0064CF04
:1007E0009091C1018091C001981758F5E091C10125
:1007F00081E08E0F8093C101F0E0E056FE4F8081D2
:10080000E9CFE091C10181E08E0F8093C101809119
:10081000BB00F0E0E056FE4F80839091C1018091D3
:10082000C0019817C8F285E8D8CFE091C10181E0F6
:100830008E0F8093C1018091BB00F0E0E056FE4F27
:10084000808380919F0181115CCF81E080939E0124
:1008500084EA8093BC0010929D0126CF85EC8093A2
:10086000BC0010929D0180919B01803230F4E09198
:100870009B01F0E0E558FE4F108260919B0170E013
:10088000E0917901F0917A018BE791E0099510925E
:100890009B010ACF10929C0134CF1F920F920FB68A
:1008A0000F9211242F933F934F935F936F937F93F6
:1008B0008F939F93AF93BF93EF93FF9382ED91E05C
:1008C0000E946601FF91EF91BF91AF919F918F912F
:1008D0007F916F915F914F913F912F910F900FBE3C
:1008E0000F901F9018951F920F920FB60F92112420
:1008F0002F938F939F93EF93FF93E091E201F091F9
:10090000E3018081E091E801F091E90182FD1BC0E3
:1009100090818091EB018F5F8F732091EC018217A2
:1009200041F0E091EB01F0E0EE52FE4F958F8093A5
:10093000EB01FF91EF919F918F912F910F900FBE3F
:100940000F901F9018958081F4CF1F920F920FB6D1
:100950000F9211242F933F938F939F93AF93BF9345
:100960008091270190912801A0912901B0912A013D
:100970003091260123E0230F2D3758F50196A11D54
:10098000B11D209326018093270190932801A09305
:100990002901B0932A0180912B0190912C01A09103
:1009A0002D01B0912E010196A11DB11D80932B0147
:1009B00090932C01A0932D01B0932E01BF91AF9184
:1009C0009F918F913F912F910F900FBE0F901F908D
:1009D000189526E8230F0296A11DB11DD2CFE6EC93
:1009E000F1E01382128288EE93E0A0E0B0E084830D
:1009F0009583A683B78324E031E031832083E2ED41
:100A0000F1E01382128284839583A683B78386E103
:100A100091E09183808385EC90E09587848784ECD6
:100A200090E09787868780EC90E0918B808B81ECBB
:100A300090E0938B828B82EC90E0958B848B86EC9C
:100A400090E0978B868B118E128E138E148E0895E4
:100A5000789484B5826084BD84B5816084BD85B599
:100A6000826085BD85B5816085BD80916E008160A5
:100A700080936E001092810080918100826080934B
:100A8000810080918100816080938100809180004D
:100A90008160809380008091B10084608093B10078
:100AA0008091B00081608093B00080917A00846072
:100AB00080937A0080917A00826080937A0080919E
:100AC0007A00816080937A0080917A0080688093B8
:100AD0007A001092C100EDE9F0E02491E9E8F0E03D
:100AE0008491882399F090E0880F991FFC01E859C0
:100AF000FF4FA591B491FC01EE58FF4F8591949161
:100B00008FB7F894EC91E22BEC938FBF86E0809343
:100B1000C5018093C30192E09093C401E091E2018A
:100B2000F091E3019083E091DE01F091DF0110820A
:100B3000E091E001F091E1019FEC90831092EA01D5
:100B4000E091E601F091E7018083E091E401F0910A
:100B5000E501808180618083E091E401F091E5010D
:100B6000808188608083E091E401F091E5018081DB
:100B700080688083E091E401F091E50180818F7DC0
:100B80008083C12CD12C7601C394C092D601D0921F
:100B9000D701E092D801F092D9018CE08093BA009D
:100BA00088EB90E0909376018093750189EB90E05B
:100BB00090937A01809379011092500110924F0125
:100BC000109254011092530110929D0181E0809384
:100BD0009F0110929E0161E082E10E942F0261E07C
:100BE00083E10E942F028091B9008E7F8093B9002B
:100BF0008091B9008D7F8093B90088E48093B8001C
:100C000085E48093BC00C092CA01D092CB01E092EF
:100C1000CC01F092CD0181E992E090935201809352
:100C2000510104E211E097E0F92E20E0C22E20E00D
:100C3000D22E1F930F93FF920E94EB025C0168EE8D
:100C400073E080E090E00E94B9020F900F900F9047
:100C5000D0E0C0E0AC16BD06B1F061E08DE00E94CE
:100C60002F0268EC70E080E090E00E94B90260E042
:100C70008DE00E942F0264E670E080E090E00E9428
:100C8000B9022196E7CFC114D10499F20E94EE0176
:100C9000882379F20E940000CCCFF8940C94560679
:100CA000EE0FFF1F0590F491E02D0994F894FFCF0B
:100CB0000000000018010D017B02E3000601F300B3
:100CC000E40000000000870102022901CE015A0160
:060CD00038014C01000098
:00000001FF
