:100000000C9453000C947B000C947B000C947B00AC
:100010000C947B000C947B000C947B000C947B0074
:100020000C947B000C947B000C947B000C947B0064
:100030000C947B000C947B000C947B000C947B0054
:100040000C9483010C947B000C94F3010C94CD016F
:100050000C947B000C947B000C947B000C947B0034
:100060000C947B000C947B0000000000250028000D
:100070002B0000000000240027002A0004040404D0
:100080000404040402020202020203030303030342
:10009000010204081020408001020408102001021F
:1000A00004081020250211241FBECFEFD8E0DEBFC8
:1000B000CDBF21E0A6E2B1E001C01D92AD3CB20788
:1000C000E1F711E0A0E0B1E0EEEEF5E002C005904E
:1000D0000D92A632B107D9F710E0C3E5D0E004C015
:1000E0002197FE010E94EF02C235D107C9F70E9495
:1000F00083020C94EC020C940000FC01538D448D9F
:10010000252F30E0842F90E0821B930B541710F0C2
:10011000CF96089501970895FC01918D828D9817CF
:1001200061F0A28DAE0FBF2FB11D5D968C91928DA7
:100130009F5F9F73928F90E008958FEF9FEF0895D8
:10014000FC01918D828D981731F0828DE80FF11DA1
:10015000858D90E008958FEF9FEF0895FC01918DBC
:10016000228D892F90E0805C9F4F821B91098F73B5
:1001700099270895FC01A48DA80FB92FB11DA35A8A
:10018000BF4F2C91848D90E001968F739927848FB7
:10019000A689B7892C93A089B1898C9180648C93AE
:1001A000938D848D981306C00288F389E02D808199
:1001B0008F7D80830895EF92FF920F931F93CF93CB
:1001C000DF93EC01F62E81E0888F9B8D8C8D981348
:1001D00016C0E889F989808185FF11C0EE89FF8901
:1001E0006083E889F98980818064808381E090E080
:1001F000DF91CF911F910F91FF90EF9008950B8D9C
:1002000010E00F5F1F4F0F731127E02E8C8D8E11A2
:100210000CC00FB607FCFACFE889F989808185FF09
:10022000F5CFCE010E94BA00F1CFEB8DEC0FFD2F80
:10023000F11DE35AFF4FF0820B8FEA89FB89808121
:100240008062D3CFCF93DF93EC01888D8823B9F000
:10025000AA89BB89E889F9898C9185FD03C08081D1
:1002600086FD0DC00FB607FCF7CF8C9185FFF2CF4E
:10027000808185FFEDCFCE010E94BA00E9CFDF91EA
:10028000CF9108958FE291E00E94AE0021E0892B8A
:1002900009F420E0822F089580E090E0892B29F076
:1002A0000E94420181110C9400000895AF92BF9208
:1002B000CF92DF92EF92FF920F931F93CF93DF9332
:1002C0006C017B018B01040F151FEB015E01AE1861
:1002D000BF08C017D10759F06991D601ED91FC9183
:1002E0000190F081E02DC6010995892B79F7C501B0
:1002F000DF91CF911F910F91FF90EF90DF90CF9002
:10030000BF90AF9008951F920F920FB60F921124D5
:100310002F933F938F939F93AF93BF9380912B0124
:1003200090912C01A0912D01B0912E0130912A01C4
:1003300023E0230F2D3758F50196A11DB11D209301
:100340002A0180932B0190932C01A0932D01B0934F
:100350002E018091260190912701A0912801B09152
:1003600029010196A11DB11D8093260190932701BB
:10037000A0932801B0932901BF91AF919F918F91D4
:100380003F912F910F900FBE0F901F90189526E868
:10039000230F0296A11DB11DD2CF1F920F920FB64F
:1003A0000F9211242F933F934F935F936F937F93FB
:1003B0008F939F93AF93BF93EF93FF938FE291E05F
:1003C0000E94BA00FF91EF91BF91AF919F918F91E1
:1003D0007F916F915F914F913F912F910F900FBE41
:1003E0000F901F9018951F920F920FB60F92112425
:1003F0002F938F939F93EF93FF93E0913F01F091A1
:1004000040018081E0914501F091460182FD1BC0D1
:100410009081809148018F5F8F73209149018217ED
:1004200041F0E0914801F0E0E15DFE4F958F80934F
:100430004801FF91EF919F918F912F910F900FBEE7
:100440000F901F9018958081F4CF0F931F93CF9337
:10045000DF93EFE2F1E01382128288EE93E0A0E0F6
:10046000B0E084839583A683B78384E091E0918391
:10047000808325EC30E03587248784EC90E09787F3
:10048000868740EC50E0518B408BA1ECB0E0B38B01
:10049000A28B02EC10E0158B048B66EC70E0778B7E
:1004A000668B118E128E138E148E1092CC0162E028
:1004B000EA016883E90118822FECEC012883108E91
:1004C00086E0F80180838C9180618C938C918860A8
:1004D0008C938C9180688C938C918F7D8C9340E170
:1004E00050E062E171E08FE291E00E94560142E04B
:1004F00050E063E271E08FE291E0DF91CF911F91D4
:100500000F910C945601789484B5826084BD84B5B3
:10051000816084BD85B5826085BD85B5816085BDFE
:1005200080916E00816080936E00109281008091B6
:10053000810082608093810080918100816080933E
:100540008100809180008160809380008091B10063
:1005500084608093B1008091B00081608093B0008E
:1005600080917A00846080937A0080917A00826022
:1005700080937A0080917A00816080937A008091E4
:100580007A00806880937A001092C100EDE9F0E073
:100590002491E9E8F0E08491882399F090E0880FB5
:1005A000991FFC01EE58FF4FA591B491FC01E85949
:1005B000FF4F859194918FB7F894EC91E22BEC93D7
:1005C0008FBFC0E0D0E02097F1F30E944201882362
:1005D000D1F30E940000F7CFF8940C94F502EE0FCF
:0E05E000FF1F0590F491E02D0994F894FFCFD1
:1005EE0000000000DB0056017D002201AE008C00F1
:1005FE00A0005541525420696E697469616C697A24
:06060E006564000D0A0006
:00000001FF
