:100000000C9463000C948B000C948B000C94630292
:100010000C9463020C9463020C948B000C948B0080
:100020000C948B000C948B000C948B000C948B0024
:100030000C948B000C948B000C948B000C948B0014
:100040000C94DB020C948B000C948B000C948B00B2
:100050000C948B000C948B000C948B000C948B00F4
:100060000C948B000C948B000000000023002600F1
:10007000290000000000240027002A0000000000E2
:10008000250028002B0004040404040404040202D4
:100090000202020203030303030301020408102007
:1000A0004080010204081020010204081020000012
:1000B0000008000201000003040700000000000027
:1000C00000004103250311241FBECFEFD8E0DEBF9F
:1000D000CDBF21E0A0E2B1E001C01D92AC38B20773
:1000E000E1F711E0A0E0B1E0E0EFF9E002C0059037
:1000F0000D92A032B107D9F710E0C2E6D0E004C0FB
:100100002197FE010E94E504C136D107C9F70E947C
:10011000AE030C94BA040C94000020918A01309133
:100120008B012817390771F490918901809188011A
:10013000981741F0E0918901F0E0E85BFE4F808183
:1001400090E008958FEF9FEF08950895EF92FF924A
:100150000F931F93CF93DF93DC015C96ED90FC909F
:100160005D97E114F10479F481E090E013969C939B
:100170008E93129790E080E0DF91CF911F910F91C5
:10018000FF90EF9008955196ED91FC915297509603
:100190008C915097982F90950FB75E962C915E9703
:1001A000122F127021FD6095F8942081112319F10E
:1001B000282B2083E7012197F1F728E0462F50E014
:1001C000308160FF1AC0382B3083E7012197F1F7A7
:1001D000BA0175956795215089F7112381F08081C7
:1001E000892380830FBF5C968D919C910197F1F7D5
:1001F00081E090E0C1CF2923DCCF3923E5CF908186
:10020000892BEFCF20918A0130918B012817390774
:1002100071F4809188012091890190E0805C9F4F6A
:10022000821B910960E470E00E94BD04089590E093
:1002300080E0089520918A0130918B0128173907B9
:10024000B9F49091890180918801981789F0E09123
:100250008901F0E0E85BFE4F80812091890130E068
:100260002F5F3F4F2F7333272093890190E008952C
:100270008FEF9FEF0895AF92BF92CF92DF92EF92F0
:10028000FF920F931F93CF93DF936C017B018B0140
:10029000040F151FEB015E01AE18BF08C017D10790
:1002A00059F06991D601ED91FC910190F081E02D1A
:1002B000C6010995892B79F7C501DF91CF911F916F
:1002C0000F91FF90EF90DF90CF90BF90AF90089587
:1002D00090E080E0089590E0FC01E255FF4F24910A
:1002E000FC01E656FF4F3491FC01EA57FF4FE491C1
:1002F000EE23C9F0222339F0233001F1A8F4213094
:1003000019F1223029F1F0E0EE0FFF1FE458FF4F02
:10031000A591B4918FB7F894EC91611126C03095F6
:100320003E233C938FBF08952730A9F02830C9F0B1
:10033000243049F7809180008F7D03C08091800038
:100340008F7780938000DFCF84B58F7784BDDBCF3C
:1003500084B58F7DFBCF8091B0008F778093B00004
:10036000D2CF8091B0008F7DF9CF3E2BDACFCF93E3
:10037000DF9390E0FC01E656FF4F24918A579F4F90
:10038000FC0184918823D1F090E0880F991FFC0133
:10039000EE58FF4FA591B491FC01E458FF4FC59171
:1003A000D49161110EC09FB7F8948C91E22FE09523
:1003B0008E238C932881E223E8839FBFDF91CF9126
:1003C00008958FB7F894EC91E22BEC938FBFF6CFA2
:1003D0003FB7F8948091250190912601A0912701C3
:1003E000B091280126B5A89B05C02F3F19F00196B2
:1003F000A11DB11D3FBFBA2FA92F982F8827BC017F
:10040000CD01620F711D811D911D42E0660F771FA6
:10041000881F991F4A95D1F708958F929F92AF92A6
:10042000BF92CF92DF92EF92FF924B015C010E944C
:10043000E8016B017C010E94E8016C197D098E09BD
:100440009F09683E734081059105A8F321E0821A57
:100450009108A108B10888EEC80E83E0D81EE11CFF
:10046000F11C81149104A104B10429F7FF90EF90CD
:10047000DF90CF90BF90AF909F908F9008950F9393
:100480001F93CF93DF938C01D0E0C0E061E08DE05B
:100490000E946B0164E670E080E090E00E940D0233
:1004A00060E08DE00E946B0164E670E080E090E027
:1004B0000E940D0221960C171D0741F7DF91CF9185
:1004C0001F910F9108951F920F920FB60F92112452
:1004D0002F933F934F935F936F937F938F939F934C
:1004E000AF93BF93EF93FF93E0918A01F0918B015B
:1004F000309749F0A685B7858585968D91FF14C004
:100500009C918923A1F4FF91EF91BF91AF919F91AD
:100510008F917F916F915F914F913F912F910F90AC
:100520000FBE0F901F9018959C91892361F7A389A6
:10053000B4899C918589809589238C938689978934
:100540000197F1F7608D718DA685B785558538E0E7
:1005500020E0CB010197F1F7822F90E095958795E8
:10056000282F4C91452309F02068315091F7868D52
:1005700081FD20958091880190E001968F739927E5
:1005800030918901381799F0A0918801B0E0A85BFB
:10059000BE4F2C9380938801828D938D0197F1F744
:1005A000A389B4898C919589892B8C93ACCF868D46
:1005B0008160868FF1CF1F920F920FB60F92112498
:1005C0002F933F938F939F93AF93BF93809121017C
:1005D00090912201A0912301B0912401309120013A
:1005E00023E0230F2D3758F50196A11DB11D20934F
:1005F00020018093210190932201A0932301B093C5
:1006000024018091250190912601A0912701B091AC
:1006100028010196A11DB11D80932501909326010B
:10062000A0932701B0932801BF91AF919F918F9123
:100630003F912F910F900FBE0F901F90189526E8B5
:10064000230F0296A11DB11DD2CF84E091E09093BB
:100650002A018093290180918A0190918B0189520E
:10066000914071F4E0913C01F0913D0190818091C5
:100670003E0180958923808310928B0110928A011C
:10068000089510922C0110922B0188EE93E0A0E0C7
:10069000B0E080932D0190932E01A0932F01B09391
:1006A000300184E091E090932A0180932901109217
:1006B000400110923F0110924201109241011092AC
:1006C000440110924301109246011092450160913D
:1006D00047016E7F6D7F609347016695617081E091
:1006E00068278BE00E946B0161E08BE00E94B701FC
:1006F000E5EAF0E0E491E0933901E1E9F0E0E4912A
:10070000F0E0EE0FFF1FE458FF4F85919491909316
:100710003B0180933A0160E08AE00E94B70180913A
:10072000470181FD04C061E08AE00E946B018AE01C
:1007300080933501E4EAF0E0E491E0933601E0E9EA
:10074000F0E0E491F0E0EE0FFF1FE859FF4F8591D4
:10075000949190933801809337010895789484B5EB
:10076000826084BD84B5816084BD85B5826085BDAD
:1007700085B5816085BD80916E00816080936E003B
:10078000109281008091810082608093810080912D
:1007900081008160809381008091800081608093DE
:1007A00080008091B10084608093B1008091B0009E
:1007B00081608093B00080917A00846080937A0099
:1007C00080917A00826080937A0080917A008160C3
:1007D00080937A0080917A00806880937A001092EA
:1007E000C10061E08DE00E94B701109244011092B7
:1007F0004301109242011092410110924001109267
:100800003F018DE991E090934601809345019091DD
:100810003501963108F047C02DEB30E030934001B0
:1008200020933F012BE931E03093420120934101B5
:100830002CE231E030934401209343012091680081
:1008400084E0983048F031E09E3008F430E081E0F8
:1008500001C0880F3A95EAF7822B809368002DE655
:1008600030E0983050F02BE630E09E3030F02CE64F
:1008700030E0963110F030E020E030933D012093DD
:100880003C01292F30E0983008F067C081E001C0BA
:10089000880F9A95EAF780933E01809145019091E7
:1008A00046010197F1F78091430190914401892B12
:1008B00049F1E0918A01F0918B0181E0E932F8077A
:1008C00009F1309739F0A389B4899C918589809585
:1008D00089238C93809147018E7F809347011092EA
:1008E00088011092890189E291E090938B018093B5
:1008F0008A01E0913C01F0913D01808190913E019F
:10090000892B8083C0E0D0E04AE050E062E171E0F2
:1009100089E291E00E943B0142E050E06DE171E02C
:1009200089E291E00E943B0181E090E00E943F0259
:1009300060ED77E080E090E00E940D0283E090E0BF
:100940000E943F0260ED77E080E090E00E940D029F
:100950002097D1F20E940000D7CF9E3040F428505B
:10096000310981E001C0880F2A95EAF794CF2E5013
:100970003109F7CFF8940C94EB0497FB072E16F48B
:10098000009407D077FD09D00E94D10407FC05D060
:100990003EF4909581959F4F0895709561957F4F96
:1009A0000895AA1BBB1B51E107C0AA1FBB1FA617B6
:1009B000B70710F0A61BB70B881F991F5A95A9F708
:1009C00080959095BC01CD010895EE0FFF1F059015
:1009D000F491E02D099410E0C2E6D0E004C0FE01DD
:1009E0000E94E5042196C336D107C9F7F894FFCFDA
:1009F00000000000A6003B016801A50002011A01E9
:100A00008D0068656C6C6F20666F6C6B000D0A0062
:00000001FF
